{"abi":[{"type":"constructor","inputs":[{"name":"_usdc","type":"address","internalType":"address"}],"stateMutability":"nonpayable"},{"type":"function","name":"checkClaimed","inputs":[{"name":"dropId","type":"uint256","internalType":"uint256"},{"name":"user","type":"address","internalType":"address"}],"outputs":[{"name":"","type":"bool","internalType":"bool"}],"stateMutability":"view"},{"type":"function","name":"claim","inputs":[{"name":"dropId","type":"uint256","internalType":"uint256"}],"outputs":[],"stateMutability":"nonpayable"},{"type":"function","name":"createDrop","inputs":[{"name":"title","type":"string","internalType":"string"},{"name":"amountPerClaim","type":"uint256","internalType":"uint256"},{"name":"maxClaims","type":"uint256","internalType":"uint256"},{"name":"expiresAt","type":"uint256","internalType":"uint256"}],"outputs":[{"name":"dropId","type":"uint256","internalType":"uint256"}],"stateMutability":"nonpayable"},{"type":"function","name":"drops","inputs":[{"name":"","type":"uint256","internalType":"uint256"}],"outputs":[{"name":"creator","type":"address","internalType":"address"},{"name":"title","type":"string","internalType":"string"},{"name":"amountPerClaim","type":"uint256","internalType":"uint256"},{"name":"maxClaims","type":"uint256","internalType":"uint256"},{"name":"claimedCount","type":"uint256","internalType":"uint256"},{"name":"active","type":"bool","internalType":"bool"},{"name":"expiresAt","type":"uint256","internalType":"uint256"}],"stateMutability":"view"},{"type":"function","name":"getDrop","inputs":[{"name":"dropId","type":"uint256","internalType":"uint256"}],"outputs":[{"name":"creator","type":"address","internalType":"address"},{"name":"title","type":"string","internalType":"string"},{"name":"amountPerClaim","type":"uint256","internalType":"uint256"},{"name":"maxClaims","type":"uint256","internalType":"uint256"},{"name":"claimedCount","type":"uint256","internalType":"uint256"},{"name":"active","type":"bool","internalType":"bool"},{"name":"expiresAt","type":"uint256","internalType":"uint256"}],"stateMutability":"view"},{"type":"function","name":"hasClaimed","inputs":[{"name":"","type":"uint256","internalType":"uint256"},{"name":"","type":"address","internalType":"address"}],"outputs":[{"name":"","type":"bool","internalType":"bool"}],"stateMutability":"view"},{"type":"function","name":"nextDropId","inputs":[],"outputs":[{"name":"","type":"uint256","internalType":"uint256"}],"stateMutability":"view"},{"type":"function","name":"refundRemaining","inputs":[{"name":"dropId","type":"uint256","internalType":"uint256"}],"outputs":[],"stateMutability":"nonpayable"},{"type":"function","name":"usdc","inputs":[],"outputs":[{"name":"","type":"address","internalType":"contract IERC20"}],"stateMutability":"view"},{"type":"event","name":"Claimed","inputs":[{"name":"dropId","type":"uint256","indexed":true,"internalType":"uint256"},{"name":"claimer","type":"address","indexed":true,"internalType":"address"},{"name":"amount","type":"uint256","indexed":false,"internalType":"uint256"}],"anonymous":false},{"type":"event","name":"DropCreated","inputs":[{"name":"dropId","type":"uint256","indexed":true,"internalType":"uint256"},{"name":"creator","type":"address","indexed":true,"internalType":"address"},{"name":"title","type":"string","indexed":false,"internalType":"string"},{"name":"totalAmount","type":"uint256","indexed":false,"internalType":"uint256"},{"name":"amountPerClaim","type":"uint256","indexed":false,"internalType":"uint256"},{"name":"maxClaims","type":"uint256","indexed":false,"internalType":"uint256"},{"name":"expiresAt","type":"uint256","indexed":false,"internalType":"uint256"}],"anonymous":false},{"type":"event","name":"DropRefunded","inputs":[{"name":"dropId","type":"uint256","indexed":true,"internalType":"uint256"},{"name":"creator","type":"address","indexed":true,"internalType":"address"},{"name":"amount","type":"uint256","indexed":false,"internalType":"uint256"}],"anonymous":false}],"bytecode":{"object":"0x60a060405234801561000f575f5ffd5b50604051611f66380380611f66833981810160405281019061003191906100c9565b8073ffffffffffffffffffffffffffffffffffffffff1660808173ffffffffffffffffffffffffffffffffffffffff1681525050506100f4565b5f5ffd5b5f73ffffffffffffffffffffffffffffffffffffffff82169050919050565b5f6100988261006f565b9050919050565b6100a88161008e565b81146100b2575f5ffd5b50565b5f815190506100c38161009f565b92915050565b5f602082840312156100de576100dd61006b565b5b5f6100eb848285016100b5565b91505092915050565b608051611e3e6101285f395f818161044c0152818161058501528181610911015281816109ed0152610e1e0152611e3e5ff3fe608060405234801561000f575f5ffd5b5060043610610091575f3560e01c80636787d449116100645780636787d44914610135578063873f6f9e1461016b578063888d9bd71461019b578063980d4ec6146101cb578063ce0ef310146101e757610091565b8063379607f5146100955780633e413bee146100b15780633ea16709146100cf5780635eb39968146100ff575b5f5ffd5b6100af60048036038101906100aa9190610fd3565b610205565b005b6100b9610583565b6040516100c69190611078565b60405180910390f35b6100e960048036038101906100e491906110cc565b6105a7565b6040516100f69190611124565b60405180910390f35b61011960048036038101906101149190610fd3565b610609565b60405161012c97969594939291906111cb565b60405180910390f35b61014f600480360381019061014a9190610fd3565b6106f8565b60405161016297969594939291906111cb565b60405180910390f35b610185600480360381019061018091906110cc565b610804565b6040516101929190611124565b60405180910390f35b6101b560048036038101906101b091906112a0565b61082e565b6040516101c29190611324565b60405180910390f35b6101e560048036038101906101e09190610fd3565b610c89565b005b6101ef610f93565b6040516101fc9190611324565b60405180910390f35b5f60015f8381526020019081526020015f209050806005015f9054906101000a900460ff16610269576040517f08c379a000000000000000000000000000000000000000000000000000000000815260040161026090611387565b60405180910390fd5b80600301548160040154106102b3576040517f08c379a00000000000000000000000000000000000000000000000000000000081526004016102aa906113ef565b60405180910390fd5b60025f8381526020019081526020015f205f3373ffffffffffffffffffffffffffffffffffffffff1673ffffffffffffffffffffffffffffffffffffffff1681526020019081526020015f205f9054906101000a900460ff161561034c576040517f08c379a000000000000000000000000000000000000000000000000000000000815260040161034390611457565b60405180910390fd5b5f81600601541480610362575080600601544211155b6103a1576040517f08c379a0000000000000000000000000000000000000000000000000000000008152600401610398906114bf565b60405180910390fd5b600160025f8481526020019081526020015f205f3373ffffffffffffffffffffffffffffffffffffffff1673ffffffffffffffffffffffffffffffffffffffff1681526020019081526020015f205f6101000a81548160ff021916908315150217905550806004015f8154809291906104199061150a565b91905055508060030154816004015403610449575f816005015f6101000a81548160ff0219169083151502179055505b5f7f000000000000000000000000000000000000000000000000000000000000000073ffffffffffffffffffffffffffffffffffffffff1663a9059cbb3384600201546040518363ffffffff1660e01b81526004016104a9929190611551565b6020604051808303815f875af11580156104c5573d5f5f3e3d5ffd5b505050506040513d601f19601f820116820180604052508101906104e991906115a2565b90508061052b576040517f08c379a000000000000000000000000000000000000000000000000000000000815260040161052290611617565b60405180910390fd5b3373ffffffffffffffffffffffffffffffffffffffff16837f4ec90e965519d92681267467f775ada5bd214aa92c0dc93d90a5e880ce9ed02684600201546040516105769190611324565b60405180910390a3505050565b7f000000000000000000000000000000000000000000000000000000000000000081565b5f60025f8481526020019081526020015f205f8373ffffffffffffffffffffffffffffffffffffffff1673ffffffffffffffffffffffffffffffffffffffff1681526020019081526020015f205f9054906101000a900460ff16905092915050565b6001602052805f5260405f205f91509050805f015f9054906101000a900473ffffffffffffffffffffffffffffffffffffffff169080600101805461064d90611662565b80601f016020809104026020016040519081016040528092919081815260200182805461067990611662565b80156106c45780601f1061069b576101008083540402835291602001916106c4565b820191905f5260205f20905b8154815290600101906020018083116106a757829003601f168201915b505050505090806002015490806003015490806004015490806005015f9054906101000a900460ff16908060060154905087565b5f60605f5f5f5f5f5f60015f8a81526020019081526020015f209050805f015f9054906101000a900473ffffffffffffffffffffffffffffffffffffffff1681600101826002015483600301548460040154856005015f9054906101000a900460ff16866006015485805461076c90611662565b80601f016020809104026020016040519081016040528092919081815260200182805461079890611662565b80156107e35780601f106107ba576101008083540402835291602001916107e3565b820191905f5260205f20905b8154815290600101906020018083116107c657829003601f168201915b50505050509550975097509750975097509750975050919395979092949650565b6002602052815f5260405f20602052805f5260405f205f915091509054906101000a900460ff1681565b5f5f8411610871576040517f08c379a0000000000000000000000000000000000000000000000000000000008152600401610868906116dc565b60405180910390fd5b5f83116108b3576040517f08c379a00000000000000000000000000000000000000000000000000000000081526004016108aa90611744565b60405180910390fd5b5f8214806108c057504282115b6108ff576040517f08c379a00000000000000000000000000000000000000000000000000000000081526004016108f6906117ac565b60405180910390fd5b5f838561090c91906117ca565b9050807f000000000000000000000000000000000000000000000000000000000000000073ffffffffffffffffffffffffffffffffffffffff1663dd62ed3e33306040518363ffffffff1660e01b815260040161096a92919061180b565b602060405180830381865afa158015610985573d5f5f3e3d5ffd5b505050506040513d601f19601f820116820180604052508101906109a99190611846565b10156109ea576040517f08c379a00000000000000000000000000000000000000000000000000000000081526004016109e1906118bb565b60405180910390fd5b5f7f000000000000000000000000000000000000000000000000000000000000000073ffffffffffffffffffffffffffffffffffffffff166323b872dd3330856040518463ffffffff1660e01b8152600401610a48939291906118d9565b6020604051808303815f875af1158015610a64573d5f5f3e3d5ffd5b505050506040513d601f19601f82011682018060405250810190610a8891906115a2565b905080610aca576040517f08c379a0000000000000000000000000000000000000000000000000000000008152600401610ac190611617565b60405180910390fd5b5f5f815480929190610adb9061150a565b9190505592506040518060e001604052803373ffffffffffffffffffffffffffffffffffffffff16815260200189898080601f0160208091040260200160405190810160405280939291908181526020018383808284375f81840152601f19601f8201169050808301925050505050505081526020018781526020018681526020015f81526020016001151581526020018581525060015f8581526020019081526020015f205f820151815f015f6101000a81548173ffffffffffffffffffffffffffffffffffffffff021916908373ffffffffffffffffffffffffffffffffffffffff1602179055506020820151816001019081610bda9190611ad2565b5060408201518160020155606082015181600301556080820151816004015560a0820151816005015f6101000a81548160ff02191690831515021790555060c082015181600601559050503373ffffffffffffffffffffffffffffffffffffffff16837fc1f8395bd009cf5f8e93948e9635f814bd147a91dc9d9b27826e3d53395cfc3f8a8a868b8b8b604051610c7696959493929190611bdb565b60405180910390a3505095945050505050565b5f60015f8381526020019081526020015f209050805f015f9054906101000a900473ffffffffffffffffffffffffffffffffffffffff1673ffffffffffffffffffffffffffffffffffffffff163373ffffffffffffffffffffffffffffffffffffffff1614610d2d576040517f08c379a0000000000000000000000000000000000000000000000000000000008152600401610d2490611c7f565b60405180910390fd5b806005015f9054906101000a900460ff16610d7d576040517f08c379a0000000000000000000000000000000000000000000000000000000008152600401610d7490611ce7565b60405180910390fd5b5f8160060154118015610d935750806006015442115b610dd2576040517f08c379a0000000000000000000000000000000000000000000000000000000008152600401610dc990611d4f565b60405180910390fd5b5f816002015482600401548360030154610dec9190611d6d565b610df691906117ca565b90505f826005015f6101000a81548160ff0219169083151502179055505f811115610f8e575f7f000000000000000000000000000000000000000000000000000000000000000073ffffffffffffffffffffffffffffffffffffffff1663a9059cbb845f015f9054906101000a900473ffffffffffffffffffffffffffffffffffffffff16846040518363ffffffff1660e01b8152600401610e99929190611551565b6020604051808303815f875af1158015610eb5573d5f5f3e3d5ffd5b505050506040513d601f19601f82011682018060405250810190610ed991906115a2565b905080610f1b576040517f08c379a0000000000000000000000000000000000000000000000000000000008152600401610f1290611dea565b60405180910390fd5b825f015f9054906101000a900473ffffffffffffffffffffffffffffffffffffffff1673ffffffffffffffffffffffffffffffffffffffff16847fa090d8e6a377f04c0f314c27e2201ff29ed1daea94530346de78b262d3ff85dd84604051610f849190611324565b60405180910390a3505b505050565b5f5481565b5f5ffd5b5f5ffd5b5f819050919050565b610fb281610fa0565b8114610fbc575f5ffd5b50565b5f81359050610fcd81610fa9565b92915050565b5f60208284031215610fe857610fe7610f98565b5b5f610ff584828501610fbf565b91505092915050565b5f73ffffffffffffffffffffffffffffffffffffffff82169050919050565b5f819050919050565b5f61104061103b61103684610ffe565b61101d565b610ffe565b9050919050565b5f61105182611026565b9050919050565b5f61106282611047565b9050919050565b61107281611058565b82525050565b5f60208201905061108b5f830184611069565b92915050565b5f61109b82610ffe565b9050919050565b6110ab81611091565b81146110b5575f5ffd5b50565b5f813590506110c6816110a2565b92915050565b5f5f604083850312156110e2576110e1610f98565b5b5f6110ef85828601610fbf565b9250506020611100858286016110b8565b9150509250929050565b5f8115159050919050565b61111e8161110a565b82525050565b5f6020820190506111375f830184611115565b92915050565b61114681611091565b82525050565b5f81519050919050565b5f82825260208201905092915050565b8281835e5f83830152505050565b5f601f19601f8301169050919050565b5f61118e8261114c565b6111988185611156565b93506111a8818560208601611166565b6111b181611174565b840191505092915050565b6111c581610fa0565b82525050565b5f60e0820190506111de5f83018a61113d565b81810360208301526111f08189611184565b90506111ff60408301886111bc565b61120c60608301876111bc565b61121960808301866111bc565b61122660a0830185611115565b61123360c08301846111bc565b98975050505050505050565b5f5ffd5b5f5ffd5b5f5ffd5b5f5f83601f8401126112605761125f61123f565b5b8235905067ffffffffffffffff81111561127d5761127c611243565b5b60208301915083600182028301111561129957611298611247565b5b9250929050565b5f5f5f5f5f608086880312156112b9576112b8610f98565b5b5f86013567ffffffffffffffff8111156112d6576112d5610f9c565b5b6112e28882890161124b565b955095505060206112f588828901610fbf565b935050604061130688828901610fbf565b925050606061131788828901610fbf565b9150509295509295909350565b5f6020820190506113375f8301846111bc565b92915050565b7f44726f70206973206e6f742061637469766500000000000000000000000000005f82015250565b5f611371601283611156565b915061137c8261133d565b602082019050919050565b5f6020820190508181035f83015261139e81611365565b9050919050565b7f44726f702066756c6c7920636c61696d656400000000000000000000000000005f82015250565b5f6113d9601283611156565b91506113e4826113a5565b602082019050919050565b5f6020820190508181035f830152611406816113cd565b9050919050565b7f416c726561647920636c61696d656400000000000000000000000000000000005f82015250565b5f611441600f83611156565b915061144c8261140d565b602082019050919050565b5f6020820190508181035f83015261146e81611435565b9050919050565b7f44726f70206861732065787069726564000000000000000000000000000000005f82015250565b5f6114a9601083611156565b91506114b482611475565b602082019050919050565b5f6020820190508181035f8301526114d68161149d565b9050919050565b7f4e487b71000000000000000000000000000000000000000000000000000000005f52601160045260245ffd5b5f61151482610fa0565b91507fffffffffffffffffffffffffffffffffffffffffffffffffffffffffffffffff8203611546576115456114dd565b5b600182019050919050565b5f6040820190506115645f83018561113d565b61157160208301846111bc565b9392505050565b6115818161110a565b811461158b575f5ffd5b50565b5f8151905061159c81611578565b92915050565b5f602082840312156115b7576115b6610f98565b5b5f6115c48482850161158e565b91505092915050565b7f55534443207472616e73666572206661696c65640000000000000000000000005f82015250565b5f611601601483611156565b915061160c826115cd565b602082019050919050565b5f6020820190508181035f83015261162e816115f5565b9050919050565b7f4e487b71000000000000000000000000000000000000000000000000000000005f52602260045260245ffd5b5f600282049050600182168061167957607f821691505b60208210810361168c5761168b611635565b5b50919050565b7f416d6f756e74206d757374206265203e203000000000000000000000000000005f82015250565b5f6116c6601283611156565b91506116d182611692565b602082019050919050565b5f6020820190508181035f8301526116f3816116ba565b9050919050565b7f4d75737420616c6c6f77206174206c65617374203120636c61696d00000000005f82015250565b5f61172e601b83611156565b9150611739826116fa565b602082019050919050565b5f6020820190508181035f83015261175b81611722565b9050919050565b7f45787069727920696e20706173740000000000000000000000000000000000005f82015250565b5f611796600e83611156565b91506117a182611762565b602082019050919050565b5f6020820190508181035f8301526117c38161178a565b9050919050565b5f6117d482610fa0565b91506117df83610fa0565b92508282026117ed81610fa0565b91508282048414831517611804576118036114dd565b5b5092915050565b5f60408201905061181e5f83018561113d565b61182b602083018461113d565b9392505050565b5f8151905061184081610fa9565b92915050565b5f6020828403121561185b5761185a610f98565b5b5f61186884828501611832565b91505092915050565b7f496e73756666696369656e74205553444320616c6c6f77616e636500000000005f82015250565b5f6118a5601b83611156565b91506118b082611871565b602082019050919050565b5f6020820190508181035f8301526118d281611899565b9050919050565b5f6060820190506118ec5f83018661113d565b6118f9602083018561113d565b61190660408301846111bc565b949350505050565b7f4e487b71000000000000000000000000000000000000000000000000000000005f52604160045260245ffd5b5f819050815f5260205f209050919050565b5f6020601f8301049050919050565b5f82821b905092915050565b5f600883026119977fffffffffffffffffffffffffffffffffffffffffffffffffffffffffffffffff8261195c565b6119a1868361195c565b95508019841693508086168417925050509392505050565b5f6119d36119ce6119c984610fa0565b61101d565b610fa0565b9050919050565b5f819050919050565b6119ec836119b9565b611a006119f8826119da565b848454611968565b825550505050565b5f5f905090565b611a17611a08565b611a228184846119e3565b505050565b5b81811015611a4557611a3a5f82611a0f565b600181019050611a28565b5050565b601f821115611a8a57611a5b8161193b565b611a648461194d565b81016020851015611a73578190505b611a87611a7f8561194d565b830182611a27565b50505b505050565b5f82821c905092915050565b5f611aaa5f1984600802611a8f565b1980831691505092915050565b5f611ac28383611a9b565b9150826002028217905092915050565b611adb8261114c565b67ffffffffffffffff811115611af457611af361190e565b5b611afe8254611662565b611b09828285611a49565b5f60209050601f831160018114611b3a575f8415611b28578287015190505b611b328582611ab7565b865550611b99565b601f198416611b488661193b565b5f5b82811015611b6f57848901518255600182019150602085019450602081019050611b4a565b86831015611b8c5784890151611b88601f891682611a9b565b8355505b6001600288020188555050505b505050505050565b828183375f83830152505050565b5f611bba8385611156565b9350611bc7838584611ba1565b611bd083611174565b840190509392505050565b5f60a0820190508181035f830152611bf481888a611baf565b9050611c0360208301876111bc565b611c1060408301866111bc565b611c1d60608301856111bc565b611c2a60808301846111bc565b979650505050505050565b7f4e6f74207468652063726561746f7200000000000000000000000000000000005f82015250565b5f611c69600f83611156565b9150611c7482611c35565b602082019050919050565b5f6020820190508181035f830152611c9681611c5d565b9050919050565b7f44726f7020616c726561647920636c6f736564000000000000000000000000005f82015250565b5f611cd1601383611156565b9150611cdc82611c9d565b602082019050919050565b5f6020820190508181035f830152611cfe81611cc5565b9050919050565b7f44726f7020686173206e6f7420657870697265642079657400000000000000005f82015250565b5f611d39601883611156565b9150611d4482611d05565b602082019050919050565b5f6020820190508181035f830152611d6681611d2d565b9050919050565b5f611d7782610fa0565b9150611d8283610fa0565b9250828203905081811115611d9a57611d996114dd565b5b92915050565b7f526566756e64207472616e73666572206661696c6564000000000000000000005f82015250565b5f611dd4601683611156565b9150611ddf82611da0565b602082019050919050565b5f6020820190508181035f830152611e0181611dc8565b905091905056fea26469706673582212204e15bc7d0613709f1d2463e2ef6c643d8fe3c50278b99a3324738f825fc8f34864736f6c634300081c0033","linkReferences":{}},"methodIdentifiers":{"checkClaimed(uint256,address)":"3ea16709","claim(uint256)":"379607f5","createDrop(string,uint256,uint256,uint256)":"888d9bd7","drops(uint256)":"5eb39968","getDrop(uint256)":"6787d449","hasClaimed(uint256,address)":"873f6f9e","nextDropId()":"ce0ef310","refundRemaining(uint256)":"980d4ec6","usdc()":"3e413bee"},"id":0}