{"abi":[{"type":"constructor","inputs":[{"name":"_usdc","type":"address","internalType":"address"}],"stateMutability":"nonpayable"},{"type":"function","name":"MAX_AMOUNT_PER_CLAIM","inputs":[],"outputs":[{"name":"","type":"uint256","internalType":"uint256"}],"stateMutability":"view"},{"type":"function","name":"MAX_CLAIMS","inputs":[],"outputs":[{"name":"","type":"uint256","internalType":"uint256"}],"stateMutability":"view"},{"type":"function","name":"MAX_EXPIRY_OFFSET","inputs":[],"outputs":[{"name":"","type":"uint256","internalType":"uint256"}],"stateMutability":"view"},{"type":"function","name":"MAX_TITLE_BYTES","inputs":[],"outputs":[{"name":"","type":"uint256","internalType":"uint256"}],"stateMutability":"view"},{"type":"function","name":"cancelDrop","inputs":[{"name":"dropId","type":"uint256","internalType":"uint256"}],"outputs":[],"stateMutability":"nonpayable"},{"type":"function","name":"claim","inputs":[{"name":"dropId","type":"uint256","internalType":"uint256"}],"outputs":[],"stateMutability":"nonpayable"},{"type":"function","name":"createDrop","inputs":[{"name":"title","type":"string","internalType":"string"},{"name":"amountPerClaim","type":"uint256","internalType":"uint256"},{"name":"maxClaims","type":"uint256","internalType":"uint256"},{"name":"expiresAt","type":"uint256","internalType":"uint256"}],"outputs":[{"name":"dropId","type":"uint256","internalType":"uint256"}],"stateMutability":"nonpayable"},{"type":"function","name":"dropBalance","inputs":[{"name":"dropId","type":"uint256","internalType":"uint256"}],"outputs":[{"name":"","type":"uint256","internalType":"uint256"}],"stateMutability":"view"},{"type":"function","name":"getDrop","inputs":[{"name":"dropId","type":"uint256","internalType":"uint256"}],"outputs":[{"name":"creator","type":"address","internalType":"address"},{"name":"title","type":"string","internalType":"string"},{"name":"amountPerClaim","type":"uint256","internalType":"uint256"},{"name":"maxClaims","type":"uint256","internalType":"uint256"},{"name":"claimedCount","type":"uint256","internalType":"uint256"},{"name":"active","type":"bool","internalType":"bool"},{"name":"expiresAt","type":"uint256","internalType":"uint256"},{"name":"remainingSlots","type":"uint256","internalType":"uint256"},{"name":"totalAmount","type":"uint256","internalType":"uint256"}],"stateMutability":"view"},{"type":"function","name":"hasClaimed","inputs":[{"name":"dropId","type":"uint256","internalType":"uint256"},{"name":"user","type":"address","internalType":"address"}],"outputs":[{"name":"","type":"bool","internalType":"bool"}],"stateMutability":"view"},{"type":"function","name":"isClaimable","inputs":[{"name":"dropId","type":"uint256","internalType":"uint256"}],"outputs":[{"name":"claimable","type":"bool","internalType":"bool"},{"name":"reason","type":"string","internalType":"string"}],"stateMutability":"view"},{"type":"function","name":"nextDropId","inputs":[],"outputs":[{"name":"","type":"uint256","internalType":"uint256"}],"stateMutability":"view"},{"type":"function","name":"refundExpired","inputs":[{"name":"dropId","type":"uint256","internalType":"uint256"}],"outputs":[],"stateMutability":"nonpayable"},{"type":"function","name":"totalDrops","inputs":[],"outputs":[{"name":"","type":"uint256","internalType":"uint256"}],"stateMutability":"view"},{"type":"function","name":"usdc","inputs":[],"outputs":[{"name":"","type":"address","internalType":"contract IERC20"}],"stateMutability":"view"},{"type":"event","name":"Claimed","inputs":[{"name":"dropId","type":"uint256","indexed":true,"internalType":"uint256"},{"name":"claimer","type":"address","indexed":true,"internalType":"address"},{"name":"amount","type":"uint256","indexed":false,"internalType":"uint256"}],"anonymous":false},{"type":"event","name":"DropCancelled","inputs":[{"name":"dropId","type":"uint256","indexed":true,"internalType":"uint256"},{"name":"creator","type":"address","indexed":true,"internalType":"address"},{"name":"refundAmount","type":"uint256","indexed":false,"internalType":"uint256"}],"anonymous":false},{"type":"event","name":"DropCreated","inputs":[{"name":"dropId","type":"uint256","indexed":true,"internalType":"uint256"},{"name":"creator","type":"address","indexed":true,"internalType":"address"},{"name":"title","type":"string","indexed":false,"internalType":"string"},{"name":"totalAmount","type":"uint256","indexed":false,"internalType":"uint256"},{"name":"amountPerClaim","type":"uint256","indexed":false,"internalType":"uint256"},{"name":"maxClaims","type":"uint256","indexed":false,"internalType":"uint256"},{"name":"expiresAt","type":"uint256","indexed":false,"internalType":"uint256"}],"anonymous":false},{"type":"event","name":"DropExpiredRefund","inputs":[{"name":"dropId","type":"uint256","indexed":true,"internalType":"uint256"},{"name":"creator","type":"address","indexed":true,"internalType":"address"},{"name":"refundAmount","type":"uint256","indexed":false,"internalType":"uint256"}],"anonymous":false}],"bytecode":{"object":"0x60a060405234801561001057600080fd5b50604051612a40380380612a408339818101604052810190610032919061013e565b600073ffffffffffffffffffffffffffffffffffffffff168173ffffffffffffffffffffffffffffffffffffffff16036100a1576040517f08c379a0000000000000000000000000000000000000000000000000000000008152600401610098906101c8565b60405180910390fd5b8073ffffffffffffffffffffffffffffffffffffffff1660808173ffffffffffffffffffffffffffffffffffffffff1681525050506101e8565b600080fd5b600073ffffffffffffffffffffffffffffffffffffffff82169050919050565b600061010b826100e0565b9050919050565b61011b81610100565b811461012657600080fd5b50565b60008151905061013881610112565b92915050565b600060208284031215610154576101536100db565b5b600061016284828501610129565b91505092915050565b600082825260208201905092915050565b7f496e76616c696420555344432061646472657373000000000000000000000000600082015250565b60006101b260148361016b565b91506101bd8261017c565b602082019050919050565b600060208201905081810360008301526101e1816101a5565b9050919050565b60805161281a6102266000396000818161045f015281816108400152818161097c01528181610d7a01528181610fbb01526113dd015261281a6000f3fe608060405234801561001057600080fd5b50600436106100f55760003560e01c8063873f6f9e11610097578063cab3fbe211610066578063cab3fbe214610291578063ce0ef310146102c1578063cf62ba92146102df578063e2710687146102fd576100f5565b8063873f6f9e146101e2578063888d9bd71461021257806389610a09146102425780639183600314610273576100f5565b80633e413bee116100d35780633e413bee146101505780633ee60bcf1461016e5780636787d4491461018c57806383bfe629146101c4576100f5565b80631402b17a146100fa5780631dc2b31a14610116578063379607f514610134575b600080fd5b610114600480360381019061010f9190611599565b610319565b005b61011e6105db565b60405161012b91906115d5565b60405180910390f35b61014e60048036038101906101499190611599565b6105e6565b005b61015861097a565b604051610165919061166f565b60405180910390f35b61017661099e565b60405161018391906115d5565b60405180910390f35b6101a660048036038101906101a19190611599565b6109a7565b6040516101bb99989796959493929190611756565b60405180910390f35b6101cc610aec565b6040516101d991906115d5565b60405180910390f35b6101fc60048036038101906101f79190611816565b610af4565b6040516102099190611856565b60405180910390f35b61022c600480360381019061022791906118d6565b610b5c565b60405161023991906115d5565b60405180910390f35b61025c60048036038101906102579190611599565b6110ff565b60405161026a92919061195e565b60405180910390f35b61027b61123e565b60405161028891906115d5565b60405180910390f35b6102ab60048036038101906102a69190611599565b611243565b6040516102b891906115d5565b60405180910390f35b6102c9611286565b6040516102d691906115d5565b60405180910390f35b6102e761128c565b6040516102f491906115d5565b60405180910390f35b61031760048036038101906103129190611599565b611292565b005b60006001600083815260200190815260200160002090508060050160009054906101000a900460ff16610381576040517f08c379a0000000000000000000000000000000000000000000000000000000008152600401610378906119da565b60405180910390fd5b60008160060154116103c8576040517f08c379a00000000000000000000000000000000000000000000000000000000081526004016103bf90611a6c565b60405180910390fd5b8060060154421161040e576040517f08c379a000000000000000000000000000000000000000000000000000000000815260040161040590611ad8565b60405180910390fd5b60008160020154826004015483600301546104299190611b27565b6104339190611b5b565b905060008260050160006101000a81548160ff02191690831515021790555060008111156105635760007f000000000000000000000000000000000000000000000000000000000000000073ffffffffffffffffffffffffffffffffffffffff1663a9059cbb8460000160009054906101000a900473ffffffffffffffffffffffffffffffffffffffff16846040518363ffffffff1660e01b81526004016104dc929190611b9d565b6020604051808303816000875af11580156104fb573d6000803e3d6000fd5b505050506040513d601f19601f8201168201806040525081019061051f9190611bf2565b905080610561576040517f08c379a000000000000000000000000000000000000000000000000000000000815260040161055890611c6b565b60405180910390fd5b505b8160000160009054906101000a900473ffffffffffffffffffffffffffffffffffffffff1673ffffffffffffffffffffffffffffffffffffffff16837fc414989b191d08eda05e507548e695057ae58f68df8d31de14298068e8c4d89e836040516105ce91906115d5565b60405180910390a3505050565b66038d7ea4c6800081565b60006001600083815260200190815260200160002090508060050160009054906101000a900460ff1661064e576040517f08c379a000000000000000000000000000000000000000000000000000000000815260040161064590611cd7565b60405180910390fd5b8060030154816004015410610698576040517f08c379a000000000000000000000000000000000000000000000000000000000815260040161068f90611d43565b60405180910390fd5b6002600083815260200190815260200160002060003373ffffffffffffffffffffffffffffffffffffffff1673ffffffffffffffffffffffffffffffffffffffff16815260200190815260200160002060009054906101000a900460ff1615610736576040517f08c379a000000000000000000000000000000000000000000000000000000000815260040161072d90611daf565b60405180910390fd5b60008160060154148061074d575080600601544211155b61078c576040517f08c379a000000000000000000000000000000000000000000000000000000000815260040161078390611e1b565b60405180910390fd5b60016002600084815260200190815260200160002060003373ffffffffffffffffffffffffffffffffffffffff1673ffffffffffffffffffffffffffffffffffffffff16815260200190815260200160002060006101000a81548160ff02191690831515021790555080600401600081548092919061080a90611e3b565b9190505550806003015481600401540361083c5760008160050160006101000a81548160ff0219169083151502179055505b60007f000000000000000000000000000000000000000000000000000000000000000073ffffffffffffffffffffffffffffffffffffffff1663a9059cbb3384600201546040518363ffffffff1660e01b815260040161089d929190611b9d565b6020604051808303816000875af11580156108bc573d6000803e3d6000fd5b505050506040513d601f19601f820116820180604052508101906108e09190611bf2565b905080610922576040517f08c379a000000000000000000000000000000000000000000000000000000000815260040161091990611ecf565b60405180910390fd5b3373ffffffffffffffffffffffffffffffffffffffff16837f4ec90e965519d92681267467f775ada5bd214aa92c0dc93d90a5e880ce9ed026846002015460405161096d91906115d5565b60405180910390a3505050565b7f000000000000000000000000000000000000000000000000000000000000000081565b60008054905090565b60006060600080600080600080600080600160008c815260200190815260200160002090508060000160009054906101000a900473ffffffffffffffffffffffffffffffffffffffff169950806001018054610a0290611f1e565b80601f0160208091040260200160405190810160405280929190818152602001828054610a2e90611f1e565b8015610a7b5780601f10610a5057610100808354040283529160200191610a7b565b820191906000526020600020905b815481529060010190602001808311610a5e57829003601f168201915b505050505098508060020154975080600301549650806004015495508060050160009054906101000a900460ff1694508060060154935080600401548160030154610ac69190611b27565b925080600301548160020154610adc9190611b5b565b9150509193959799909294969850565b6312cc030081565b60006002600084815260200190815260200160002060008373ffffffffffffffffffffffffffffffffffffffff1673ffffffffffffffffffffffffffffffffffffffff16815260200190815260200160002060009054906101000a900460ff16905092915050565b6000808686905011610ba3576040517f08c379a0000000000000000000000000000000000000000000000000000000008152600401610b9a90611f9b565b60405180910390fd5b60c8868690501115610bea576040517f08c379a0000000000000000000000000000000000000000000000000000000008152600401610be190612007565b60405180910390fd5b60008411610c2d576040517f08c379a0000000000000000000000000000000000000000000000000000000008152600401610c2490612073565b60405180910390fd5b66038d7ea4c68000841115610c77576040517f08c379a0000000000000000000000000000000000000000000000000000000008152600401610c6e906120df565b60405180910390fd5b60008311610cba576040517f08c379a0000000000000000000000000000000000000000000000000000000008152600401610cb19061214b565b60405180910390fd5b612710831115610cff576040517f08c379a0000000000000000000000000000000000000000000000000000000008152600401610cf6906121b7565b60405180910390fd5b6000821480610d2857504282118015610d2757506312cc030042610d2391906121d7565b8211155b5b610d67576040517f08c379a0000000000000000000000000000000000000000000000000000000008152600401610d5e9061227d565b60405180910390fd5b60008385610d759190611b5b565b9050807f000000000000000000000000000000000000000000000000000000000000000073ffffffffffffffffffffffffffffffffffffffff1663dd62ed3e33306040518363ffffffff1660e01b8152600401610dd392919061229d565b602060405180830381865afa158015610df0573d6000803e3d6000fd5b505050506040513d601f19601f82011682018060405250810190610e1491906122db565b1015610e55576040517f08c379a0000000000000000000000000000000000000000000000000000000008152600401610e4c9061237a565b60405180910390fd5b600054915060008081548092919060010191905055506040518060e001604052803373ffffffffffffffffffffffffffffffffffffffff16815260200188888080601f016020809104026020016040519081016040528093929190818152602001838380828437600081840152601f19601f82011690508083019250505050505050815260200186815260200185815260200160008152602001600115158152602001848152506001600084815260200190815260200160002060008201518160000160006101000a81548173ffffffffffffffffffffffffffffffffffffffff021916908373ffffffffffffffffffffffffffffffffffffffff1602179055506020820151816001019081610f6b919061256b565b5060408201518160020155606082015181600301556080820151816004015560a08201518160050160006101000a81548160ff02191690831515021790555060c0820151816006015590505060007f000000000000000000000000000000000000000000000000000000000000000073ffffffffffffffffffffffffffffffffffffffff166323b872dd3330856040518463ffffffff1660e01b81526004016110169392919061263d565b6020604051808303816000875af1158015611035573d6000803e3d6000fd5b505050506040513d601f19601f820116820180604052508101906110599190611bf2565b90508061109b576040517f08c379a0000000000000000000000000000000000000000000000000000000008152600401611092906126c0565b60405180910390fd5b3373ffffffffffffffffffffffffffffffffffffffff16837fc1f8395bd009cf5f8e93948e9635f814bd147a91dc9d9b27826e3d53395cfc3f8a8a868b8b8b6040516110ec9695949392919061271c565b60405180910390a3505095945050505050565b6000606060006001600085815260200190815260200160002090508060050160009054906101000a900460ff166111725760006040518060400160405280600e81526020017f44726f7020697320636c6f7365640000000000000000000000000000000000008152509250925050611239565b80600301548160040154106111c35760006040518060400160405280600d81526020017f46756c6c7920636c61696d6564000000000000000000000000000000000000008152509250925050611239565b600081600601541180156111da5750806006015442115b156112215760006040518060400160405280601081526020017f44726f70206861732065787069726564000000000000000000000000000000008152509250925050611239565b60016040518060200160405280600081525092509250505b915091565b60c881565b6000806001600084815260200190815260200160002090508060020154816004015482600301546112749190611b27565b61127e9190611b5b565b915050919050565b60005481565b61271081565b60006001600083815260200190815260200160002090508060000160009054906101000a900473ffffffffffffffffffffffffffffffffffffffff1673ffffffffffffffffffffffffffffffffffffffff163373ffffffffffffffffffffffffffffffffffffffff161461133b576040517f08c379a0000000000000000000000000000000000000000000000000000000008152600401611332906127c4565b60405180910390fd5b8060050160009054906101000a900460ff1661138c576040517f08c379a0000000000000000000000000000000000000000000000000000000008152600401611383906119da565b60405180910390fd5b60008160020154826004015483600301546113a79190611b27565b6113b19190611b5b565b905060008260050160006101000a81548160ff02191690831515021790555060008111156114e15760007f000000000000000000000000000000000000000000000000000000000000000073ffffffffffffffffffffffffffffffffffffffff1663a9059cbb8460000160009054906101000a900473ffffffffffffffffffffffffffffffffffffffff16846040518363ffffffff1660e01b815260040161145a929190611b9d565b6020604051808303816000875af1158015611479573d6000803e3d6000fd5b505050506040513d601f19601f8201168201806040525081019061149d9190611bf2565b9050806114df576040517f08c379a00000000000000000000000000000000000000000000000000000000081526004016114d690611c6b565b60405180910390fd5b505b8160000160009054906101000a900473ffffffffffffffffffffffffffffffffffffffff1673ffffffffffffffffffffffffffffffffffffffff16837fbba7cace6457ca729b3d2592d6751403a7187faf26ad54d0c869ca812927a4c98360405161154c91906115d5565b60405180910390a3505050565b600080fd5b600080fd5b6000819050919050565b61157681611563565b811461158157600080fd5b50565b6000813590506115938161156d565b92915050565b6000602082840312156115af576115ae611559565b5b60006115bd84828501611584565b91505092915050565b6115cf81611563565b82525050565b60006020820190506115ea60008301846115c6565b92915050565b600073ffffffffffffffffffffffffffffffffffffffff82169050919050565b6000819050919050565b600061163561163061162b846115f0565b611610565b6115f0565b9050919050565b60006116478261161a565b9050919050565b60006116598261163c565b9050919050565b6116698161164e565b82525050565b60006020820190506116846000830184611660565b92915050565b6000611695826115f0565b9050919050565b6116a58161168a565b82525050565b600081519050919050565b600082825260208201905092915050565b60005b838110156116e55780820151818401526020810190506116ca565b60008484015250505050565b6000601f19601f8301169050919050565b600061170d826116ab565b61171781856116b6565b93506117278185602086016116c7565b611730816116f1565b840191505092915050565b60008115159050919050565b6117508161173b565b82525050565b60006101208201905061176c600083018c61169c565b818103602083015261177e818b611702565b905061178d604083018a6115c6565b61179a60608301896115c6565b6117a760808301886115c6565b6117b460a0830187611747565b6117c160c08301866115c6565b6117ce60e08301856115c6565b6117dc6101008301846115c6565b9a9950505050505050505050565b6117f38161168a565b81146117fe57600080fd5b50565b600081359050611810816117ea565b92915050565b6000806040838503121561182d5761182c611559565b5b600061183b85828601611584565b925050602061184c85828601611801565b9150509250929050565b600060208201905061186b6000830184611747565b92915050565b600080fd5b600080fd5b600080fd5b60008083601f84011261189657611895611871565b5b8235905067ffffffffffffffff8111156118b3576118b2611876565b5b6020830191508360018202830111156118cf576118ce61187b565b5b9250929050565b6000806000806000608086880312156118f2576118f1611559565b5b600086013567ffffffffffffffff8111156119105761190f61155e565b5b61191c88828901611880565b9550955050602061192f88828901611584565b935050604061194088828901611584565b925050606061195188828901611584565b9150509295509295909350565b60006040820190506119736000830185611747565b81810360208301526119858184611702565b90509392505050565b7f44726f7020616c726561647920636c6f73656400000000000000000000000000600082015250565b60006119c46013836116b6565b91506119cf8261198e565b602082019050919050565b600060208201905081810360008301526119f3816119b7565b9050919050565b7f44726f7020686173206e6f20657870697279202d207573652063616e63656c4460008201527f726f700000000000000000000000000000000000000000000000000000000000602082015250565b6000611a566023836116b6565b9150611a61826119fa565b604082019050919050565b60006020820190508181036000830152611a8581611a49565b9050919050565b7f44726f7020686173206e6f742065787069726564207965740000000000000000600082015250565b6000611ac26018836116b6565b9150611acd82611a8c565b602082019050919050565b60006020820190508181036000830152611af181611ab5565b9050919050565b7f4e487b7100000000000000000000000000000000000000000000000000000000600052601160045260246000fd5b6000611b3282611563565b9150611b3d83611563565b9250828203905081811115611b5557611b54611af8565b5b92915050565b6000611b6682611563565b9150611b7183611563565b9250828202611b7f81611563565b91508282048414831517611b9657611b95611af8565b5b5092915050565b6000604082019050611bb2600083018561169c565b611bbf60208301846115c6565b9392505050565b611bcf8161173b565b8114611bda57600080fd5b50565b600081519050611bec81611bc6565b92915050565b600060208284031215611c0857611c07611559565b5b6000611c1684828501611bdd565b91505092915050565b7f526566756e64207472616e73666572206661696c656400000000000000000000600082015250565b6000611c556016836116b6565b9150611c6082611c1f565b602082019050919050565b60006020820190508181036000830152611c8481611c48565b9050919050565b7f44726f70206973206e6f74206163746976650000000000000000000000000000600082015250565b6000611cc16012836116b6565b9150611ccc82611c8b565b602082019050919050565b60006020820190508181036000830152611cf081611cb4565b9050919050565b7f44726f702069732066756c6c7920636c61696d65640000000000000000000000600082015250565b6000611d2d6015836116b6565b9150611d3882611cf7565b602082019050919050565b60006020820190508181036000830152611d5c81611d20565b9050919050565b7f416c726561647920636c61696d656420746869732064726f7000000000000000600082015250565b6000611d996019836116b6565b9150611da482611d63565b602082019050919050565b60006020820190508181036000830152611dc881611d8c565b9050919050565b7f44726f7020686173206578706972656400000000000000000000000000000000600082015250565b6000611e056010836116b6565b9150611e1082611dcf565b602082019050919050565b60006020820190508181036000830152611e3481611df8565b9050919050565b6000611e4682611563565b91507fffffffffffffffffffffffffffffffffffffffffffffffffffffffffffffffff8203611e7857611e77611af8565b5b600182019050919050565b7f55534443207472616e73666572206661696c6564000000000000000000000000600082015250565b6000611eb96014836116b6565b9150611ec482611e83565b602082019050919050565b60006020820190508181036000830152611ee881611eac565b9050919050565b7f4e487b7100000000000000000000000000000000000000000000000000000000600052602260045260246000fd5b60006002820490506001821680611f3657607f821691505b602082108103611f4957611f48611eef565b5b50919050565b7f5469746c65207265717569726564000000000000000000000000000000000000600082015250565b6000611f85600e836116b6565b9150611f9082611f4f565b602082019050919050565b60006020820190508181036000830152611fb481611f78565b9050919050565b7f5469746c6520746f6f206c6f6e6720286d617820323030206279746573290000600082015250565b6000611ff1601e836116b6565b9150611ffc82611fbb565b602082019050919050565b6000602082019050818103600083015261202081611fe4565b9050919050565b7f416d6f756e74206d757374206265203e20300000000000000000000000000000600082015250565b600061205d6012836116b6565b915061206882612027565b602082019050919050565b6000602082019050818103600083015261208c81612050565b9050919050565b7f416d6f756e742070657220636c61696d20746f6f206c61726765000000000000600082015250565b60006120c9601a836116b6565b91506120d482612093565b602082019050919050565b600060208201905081810360008301526120f8816120bc565b9050919050565b7f4d75737420616c6c6f77206174206c65617374203120636c61696d0000000000600082015250565b6000612135601b836116b6565b9150612140826120ff565b602082019050919050565b6000602082019050818103600083015261216481612128565b9050919050565b7f546f6f206d616e7920636c61696d7320286d6178203130303030290000000000600082015250565b60006121a1601b836116b6565b91506121ac8261216b565b602082019050919050565b600060208201905081810360008301526121d081612194565b9050919050565b60006121e282611563565b91506121ed83611563565b925082820190508082111561220557612204611af8565b5b92915050565b7f457870697279206d75737420626520696e207468652066757475726520616e6460008201527f2077697468696e20313020796561727300000000000000000000000000000000602082015250565b60006122676030836116b6565b91506122728261220b565b604082019050919050565b600060208201905081810360008301526122968161225a565b9050919050565b60006040820190506122b2600083018561169c565b6122bf602083018461169c565b9392505050565b6000815190506122d58161156d565b92915050565b6000602082840312156122f1576122f0611559565b5b60006122ff848285016122c6565b91505092915050565b7f496e73756666696369656e74205553444320616c6c6f77616e6365202d20636160008201527f6c6c20617070726f766528292066697273740000000000000000000000000000602082015250565b60006123646032836116b6565b915061236f82612308565b604082019050919050565b6000602082019050818103600083015261239381612357565b9050919050565b7f4e487b7100000000000000000000000000000000000000000000000000000000600052604160045260246000fd5b60008190508160005260206000209050919050565b60006020601f8301049050919050565b600082821b905092915050565b60006008830261242b7fffffffffffffffffffffffffffffffffffffffffffffffffffffffffffffffff826123ee565b61243586836123ee565b95508019841693508086168417925050509392505050565b600061246861246361245e84611563565b611610565b611563565b9050919050565b6000819050919050565b6124828361244d565b61249661248e8261246f565b8484546123fb565b825550505050565b600090565b6124ab61249e565b6124b6818484612479565b505050565b5b818110156124da576124cf6000826124a3565b6001810190506124bc565b5050565b601f82111561251f576124f0816123c9565b6124f9846123de565b81016020851015612508578190505b61251c612514856123de565b8301826124bb565b50505b505050565b600082821c905092915050565b600061254260001984600802612524565b1980831691505092915050565b600061255b8383612531565b9150826002028217905092915050565b612574826116ab565b67ffffffffffffffff81111561258d5761258c61239a565b5b6125978254611f1e565b6125a28282856124de565b600060209050601f8311600181146125d557600084156125c3578287015190505b6125cd858261254f565b865550612635565b601f1984166125e3866123c9565b60005b8281101561260b578489015182556001820191506020850194506020810190506125e6565b868310156126285784890151612624601f891682612531565b8355505b6001600288020188555050505b505050505050565b6000606082019050612652600083018661169c565b61265f602083018561169c565b61266c60408301846115c6565b949350505050565b7f55534443207472616e7366657246726f6d206661696c65640000000000000000600082015250565b60006126aa6018836116b6565b91506126b582612674565b602082019050919050565b600060208201905081810360008301526126d98161269d565b9050919050565b82818337600083830152505050565b60006126fb83856116b6565b93506127088385846126e0565b612711836116f1565b840190509392505050565b600060a082019050818103600083015261273781888a6126ef565b905061274660208301876115c6565b61275360408301866115c6565b61276060608301856115c6565b61276d60808301846115c6565b979650505050505050565b7f4e6f74207468652063726561746f720000000000000000000000000000000000600082015250565b60006127ae600f836116b6565b91506127b982612778565b602082019050919050565b600060208201905081810360008301526127dd816127a1565b905091905056fea2646970667358221220eb135c5524340f9162edf75979429776942acafb330e1a723d23b710c7b7519e64736f6c634300081c0033","linkReferences":{}},"methodIdentifiers":{"MAX_AMOUNT_PER_CLAIM()":"1dc2b31a","MAX_CLAIMS()":"cf62ba92","MAX_EXPIRY_OFFSET()":"83bfe629","MAX_TITLE_BYTES()":"91836003","cancelDrop(uint256)":"e2710687","claim(uint256)":"379607f5","createDrop(string,uint256,uint256,uint256)":"888d9bd7","dropBalance(uint256)":"cab3fbe2","getDrop(uint256)":"6787d449","hasClaimed(uint256,address)":"873f6f9e","isClaimable(uint256)":"89610a09","nextDropId()":"ce0ef310","refundExpired(uint256)":"1402b17a","totalDrops()":"3ee60bcf","usdc()":"3e413bee"},"id":16}