{"abi":[{"type":"constructor","inputs":[{"name":"_usdc","type":"address","internalType":"address"}],"stateMutability":"nonpayable"},{"type":"function","name":"MAX_AMOUNT_PER_CLAIM","inputs":[],"outputs":[{"name":"","type":"uint256","internalType":"uint256"}],"stateMutability":"view"},{"type":"function","name":"MAX_CLAIMS","inputs":[],"outputs":[{"name":"","type":"uint256","internalType":"uint256"}],"stateMutability":"view"},{"type":"function","name":"MAX_EXPIRY_OFFSET","inputs":[],"outputs":[{"name":"","type":"uint256","internalType":"uint256"}],"stateMutability":"view"},{"type":"function","name":"MAX_TITLE_BYTES","inputs":[],"outputs":[{"name":"","type":"uint256","internalType":"uint256"}],"stateMutability":"view"},{"type":"function","name":"cancelDrop","inputs":[{"name":"dropId","type":"uint256","internalType":"uint256"}],"outputs":[],"stateMutability":"nonpayable"},{"type":"function","name":"claim","inputs":[{"name":"dropId","type":"uint256","internalType":"uint256"}],"outputs":[],"stateMutability":"nonpayable"},{"type":"function","name":"createDrop","inputs":[{"name":"title","type":"string","internalType":"string"},{"name":"amountPerClaim","type":"uint256","internalType":"uint256"},{"name":"maxClaims","type":"uint256","internalType":"uint256"},{"name":"expiresAt","type":"uint256","internalType":"uint256"}],"outputs":[{"name":"dropId","type":"uint256","internalType":"uint256"}],"stateMutability":"nonpayable"},{"type":"function","name":"dropBalance","inputs":[{"name":"dropId","type":"uint256","internalType":"uint256"}],"outputs":[{"name":"","type":"uint256","internalType":"uint256"}],"stateMutability":"view"},{"type":"function","name":"getDrop","inputs":[{"name":"dropId","type":"uint256","internalType":"uint256"}],"outputs":[{"name":"creator","type":"address","internalType":"address"},{"name":"title","type":"string","internalType":"string"},{"name":"amountPerClaim","type":"uint256","internalType":"uint256"},{"name":"maxClaims","type":"uint256","internalType":"uint256"},{"name":"claimedCount","type":"uint256","internalType":"uint256"},{"name":"active","type":"bool","internalType":"bool"},{"name":"expiresAt","type":"uint256","internalType":"uint256"},{"name":"remainingSlots","type":"uint256","internalType":"uint256"},{"name":"totalAmount","type":"uint256","internalType":"uint256"}],"stateMutability":"view"},{"type":"function","name":"hasClaimed","inputs":[{"name":"dropId","type":"uint256","internalType":"uint256"},{"name":"user","type":"address","internalType":"address"}],"outputs":[{"name":"","type":"bool","internalType":"bool"}],"stateMutability":"view"},{"type":"function","name":"isClaimable","inputs":[{"name":"dropId","type":"uint256","internalType":"uint256"}],"outputs":[{"name":"claimable","type":"bool","internalType":"bool"},{"name":"reason","type":"string","internalType":"string"}],"stateMutability":"view"},{"type":"function","name":"nextDropId","inputs":[],"outputs":[{"name":"","type":"uint256","internalType":"uint256"}],"stateMutability":"view"},{"type":"function","name":"refundExpired","inputs":[{"name":"dropId","type":"uint256","internalType":"uint256"}],"outputs":[],"stateMutability":"nonpayable"},{"type":"function","name":"totalDrops","inputs":[],"outputs":[{"name":"","type":"uint256","internalType":"uint256"}],"stateMutability":"view"},{"type":"function","name":"usdc","inputs":[],"outputs":[{"name":"","type":"address","internalType":"contract IERC20"}],"stateMutability":"view"},{"type":"event","name":"Claimed","inputs":[{"name":"dropId","type":"uint256","indexed":true,"internalType":"uint256"},{"name":"claimer","type":"address","indexed":true,"internalType":"address"},{"name":"amount","type":"uint256","indexed":false,"internalType":"uint256"}],"anonymous":false},{"type":"event","name":"DropCancelled","inputs":[{"name":"dropId","type":"uint256","indexed":true,"internalType":"uint256"},{"name":"creator","type":"address","indexed":true,"internalType":"address"},{"name":"refundAmount","type":"uint256","indexed":false,"internalType":"uint256"}],"anonymous":false},{"type":"event","name":"DropCreated","inputs":[{"name":"dropId","type":"uint256","indexed":true,"internalType":"uint256"},{"name":"creator","type":"address","indexed":true,"internalType":"address"},{"name":"title","type":"string","indexed":false,"internalType":"string"},{"name":"totalAmount","type":"uint256","indexed":false,"internalType":"uint256"},{"name":"amountPerClaim","type":"uint256","indexed":false,"internalType":"uint256"},{"name":"maxClaims","type":"uint256","indexed":false,"internalType":"uint256"},{"name":"expiresAt","type":"uint256","indexed":false,"internalType":"uint256"}],"anonymous":false},{"type":"event","name":"DropExpiredRefund","inputs":[{"name":"dropId","type":"uint256","indexed":true,"internalType":"uint256"},{"name":"creator","type":"address","indexed":true,"internalType":"address"},{"name":"refundAmount","type":"uint256","indexed":false,"internalType":"uint256"}],"anonymous":false}],"bytecode":{"object":"0x60a060405234801561000f575f5ffd5b5060405161290338038061290383398181016040528101906100319190610137565b5f73ffffffffffffffffffffffffffffffffffffffff168173ffffffffffffffffffffffffffffffffffffffff160361009f576040517f08c379a0000000000000000000000000000000000000000000000000000000008152600401610096906101bc565b60405180910390fd5b8073ffffffffffffffffffffffffffffffffffffffff1660808173ffffffffffffffffffffffffffffffffffffffff1681525050506101da565b5f5ffd5b5f73ffffffffffffffffffffffffffffffffffffffff82169050919050565b5f610106826100dd565b9050919050565b610116816100fc565b8114610120575f5ffd5b50565b5f815190506101318161010d565b92915050565b5f6020828403121561014c5761014b6100d9565b5b5f61015984828501610123565b91505092915050565b5f82825260208201905092915050565b7f496e76616c6964205553444320616464726573730000000000000000000000005f82015250565b5f6101a6601483610162565b91506101b182610172565b602082019050919050565b5f6020820190508181035f8301526101d38161019a565b9050919050565b6080516126ee6102155f395f8181610452015281816108190152818161095201528181610d3801528181610f6c015261137201526126ee5ff3fe608060405234801561000f575f5ffd5b50600436106100f3575f3560e01c8063873f6f9e11610095578063cab3fbe211610064578063cab3fbe21461028e578063ce0ef310146102be578063cf62ba92146102dc578063e2710687146102fa576100f3565b8063873f6f9e146101df578063888d9bd71461020f57806389610a091461023f5780639183600314610270576100f3565b80633e413bee116100d15780633e413bee1461014d5780633ee60bcf1461016b5780636787d4491461018957806383bfe629146101c1576100f3565b80631402b17a146100f75780631dc2b31a14610113578063379607f514610131575b5f5ffd5b610111600480360381019061010c9190611522565b610316565b005b61011b6105c7565b604051610128919061155c565b60405180910390f35b61014b60048036038101906101469190611522565b6105d2565b005b610155610950565b60405161016291906115ef565b60405180910390f35b610173610974565b604051610180919061155c565b60405180910390f35b6101a3600480360381019061019e9190611522565b61097c565b6040516101b8999897969594939291906116b2565b60405180910390f35b6101c9610ab5565b6040516101d6919061155c565b60405180910390f35b6101f960048036038101906101f4919061176e565b610abd565b60405161020691906117ac565b60405180910390f35b61022960048036038101906102249190611826565b610b1f565b604051610236919061155c565b60405180910390f35b61025960048036038101906102549190611522565b6110ad565b6040516102679291906118aa565b60405180910390f35b6102786111e2565b604051610285919061155c565b60405180910390f35b6102a860048036038101906102a39190611522565b6111e7565b6040516102b5919061155c565b60405180910390f35b6102c6611227565b6040516102d3919061155c565b60405180910390f35b6102e461122c565b6040516102f1919061155c565b60405180910390f35b610314600480360381019061030f9190611522565b611232565b005b5f60015f8381526020019081526020015f209050806005015f9054906101000a900460ff1661037a576040517f08c379a000000000000000000000000000000000000000000000000000000000815260040161037190611922565b60405180910390fd5b5f8160060154116103c0576040517f08c379a00000000000000000000000000000000000000000000000000000000081526004016103b7906119b0565b60405180910390fd5b80600601544211610406576040517f08c379a00000000000000000000000000000000000000000000000000000000081526004016103fd90611a18565b60405180910390fd5b5f8160020154826004015483600301546104209190611a63565b61042a9190611a96565b90505f826005015f6101000a81548160ff0219169083151502179055505f811115610551575f7f000000000000000000000000000000000000000000000000000000000000000073ffffffffffffffffffffffffffffffffffffffff1663a9059cbb845f015f9054906101000a900473ffffffffffffffffffffffffffffffffffffffff16846040518363ffffffff1660e01b81526004016104cd929190611ad7565b6020604051808303815f875af11580156104e9573d5f5f3e3d5ffd5b505050506040513d601f19601f8201168201806040525081019061050d9190611b28565b90508061054f576040517f08c379a000000000000000000000000000000000000000000000000000000000815260040161054690611b9d565b60405180910390fd5b505b815f015f9054906101000a900473ffffffffffffffffffffffffffffffffffffffff1673ffffffffffffffffffffffffffffffffffffffff16837fc414989b191d08eda05e507548e695057ae58f68df8d31de14298068e8c4d89e836040516105ba919061155c565b60405180910390a3505050565b66038d7ea4c6800081565b5f60015f8381526020019081526020015f209050806005015f9054906101000a900460ff16610636576040517f08c379a000000000000000000000000000000000000000000000000000000000815260040161062d90611c05565b60405180910390fd5b8060030154816004015410610680576040517f08c379a000000000000000000000000000000000000000000000000000000000815260040161067790611c6d565b60405180910390fd5b60025f8381526020019081526020015f205f3373ffffffffffffffffffffffffffffffffffffffff1673ffffffffffffffffffffffffffffffffffffffff1681526020019081526020015f205f9054906101000a900460ff1615610719576040517f08c379a000000000000000000000000000000000000000000000000000000000815260040161071090611cd5565b60405180910390fd5b5f8160060154148061072f575080600601544211155b61076e576040517f08c379a000000000000000000000000000000000000000000000000000000000815260040161076590611d3d565b60405180910390fd5b600160025f8481526020019081526020015f205f3373ffffffffffffffffffffffffffffffffffffffff1673ffffffffffffffffffffffffffffffffffffffff1681526020019081526020015f205f6101000a81548160ff021916908315150217905550806004015f8154809291906107e690611d5b565b91905055508060030154816004015403610816575f816005015f6101000a81548160ff0219169083151502179055505b5f7f000000000000000000000000000000000000000000000000000000000000000073ffffffffffffffffffffffffffffffffffffffff1663a9059cbb3384600201546040518363ffffffff1660e01b8152600401610876929190611ad7565b6020604051808303815f875af1158015610892573d5f5f3e3d5ffd5b505050506040513d601f19601f820116820180604052508101906108b69190611b28565b9050806108f8576040517f08c379a00000000000000000000000000000000000000000000000000000000081526004016108ef90611dec565b60405180910390fd5b3373ffffffffffffffffffffffffffffffffffffffff16837f4ec90e965519d92681267467f775ada5bd214aa92c0dc93d90a5e880ce9ed0268460020154604051610943919061155c565b60405180910390a3505050565b7f000000000000000000000000000000000000000000000000000000000000000081565b5f5f54905090565b5f60605f5f5f5f5f5f5f5f60015f8c81526020019081526020015f209050805f015f9054906101000a900473ffffffffffffffffffffffffffffffffffffffff1699508060010180546109ce90611e37565b80601f01602080910402602001604051908101604052809291908181526020018280546109fa90611e37565b8015610a455780601f10610a1c57610100808354040283529160200191610a45565b820191905f5260205f20905b815481529060010190602001808311610a2857829003601f168201915b50505050509850806002015497508060030154965080600401549550806005015f9054906101000a900460ff1694508060060154935080600401548160030154610a8f9190611a63565b925080600301548160020154610aa59190611a96565b9150509193959799909294969850565b6312cc030081565b5f60025f8481526020019081526020015f205f8373ffffffffffffffffffffffffffffffffffffffff1673ffffffffffffffffffffffffffffffffffffffff1681526020019081526020015f205f9054906101000a900460ff16905092915050565b5f5f8686905011610b65576040517f08c379a0000000000000000000000000000000000000000000000000000000008152600401610b5c90611eb1565b60405180910390fd5b60c8868690501115610bac576040517f08c379a0000000000000000000000000000000000000000000000000000000008152600401610ba390611f19565b60405180910390fd5b5f8411610bee576040517f08c379a0000000000000000000000000000000000000000000000000000000008152600401610be590611f81565b60405180910390fd5b66038d7ea4c68000841115610c38576040517f08c379a0000000000000000000000000000000000000000000000000000000008152600401610c2f90611fe9565b60405180910390fd5b5f8311610c7a576040517f08c379a0000000000000000000000000000000000000000000000000000000008152600401610c7190612051565b60405180910390fd5b612710831115610cbf576040517f08c379a0000000000000000000000000000000000000000000000000000000008152600401610cb6906120b9565b60405180910390fd5b5f821480610ce757504282118015610ce657506312cc030042610ce291906120d7565b8211155b5b610d26576040517f08c379a0000000000000000000000000000000000000000000000000000000008152600401610d1d9061217a565b60405180910390fd5b5f8385610d339190611a96565b9050807f000000000000000000000000000000000000000000000000000000000000000073ffffffffffffffffffffffffffffffffffffffff1663dd62ed3e33306040518363ffffffff1660e01b8152600401610d91929190612198565b602060405180830381865afa158015610dac573d5f5f3e3d5ffd5b505050506040513d601f19601f82011682018060405250810190610dd091906121d3565b1015610e11576040517f08c379a0000000000000000000000000000000000000000000000000000000008152600401610e089061226e565b60405180910390fd5b5f5491505f5f81548092919060010191905055506040518060e001604052803373ffffffffffffffffffffffffffffffffffffffff16815260200188888080601f0160208091040260200160405190810160405280939291908181526020018383808284375f81840152601f19601f8201169050808301925050505050505081526020018681526020018581526020015f81526020016001151581526020018481525060015f8481526020019081526020015f205f820151815f015f6101000a81548173ffffffffffffffffffffffffffffffffffffffff021916908373ffffffffffffffffffffffffffffffffffffffff1602179055506020820151816001019081610f1e9190612450565b5060408201518160020155606082015181600301556080820151816004015560a0820151816005015f6101000a81548160ff02191690831515021790555060c082015181600601559050505f7f000000000000000000000000000000000000000000000000000000000000000073ffffffffffffffffffffffffffffffffffffffff166323b872dd3330856040518463ffffffff1660e01b8152600401610fc79392919061251f565b6020604051808303815f875af1158015610fe3573d5f5f3e3d5ffd5b505050506040513d601f19601f820116820180604052508101906110079190611b28565b905080611049576040517f08c379a00000000000000000000000000000000000000000000000000000000081526004016110409061259e565b60405180910390fd5b3373ffffffffffffffffffffffffffffffffffffffff16837fc1f8395bd009cf5f8e93948e9635f814bd147a91dc9d9b27826e3d53395cfc3f8a8a868b8b8b60405161109a969594939291906125f6565b60405180910390a3505095945050505050565b5f60605f60015f8581526020019081526020015f209050806005015f9054906101000a900460ff1661111a575f6040518060400160405280600e81526020017f44726f7020697320636c6f73656400000000000000000000000000000000000081525092509250506111dd565b806003015481600401541061116a575f6040518060400160405280600d81526020017f46756c6c7920636c61696d65640000000000000000000000000000000000000081525092509250506111dd565b5f81600601541180156111805750806006015442115b156111c6575f6040518060400160405280601081526020017f44726f702068617320657870697265640000000000000000000000000000000081525092509250506111dd565b600160405180602001604052805f81525092509250505b915091565b60c881565b5f5f60015f8481526020019081526020015f2090508060020154816004015482600301546112159190611a63565b61121f9190611a96565b915050919050565b5f5481565b61271081565b5f60015f8381526020019081526020015f209050805f015f9054906101000a900473ffffffffffffffffffffffffffffffffffffffff1673ffffffffffffffffffffffffffffffffffffffff163373ffffffffffffffffffffffffffffffffffffffff16146112d6576040517f08c379a00000000000000000000000000000000000000000000000000000000081526004016112cd9061269a565b60405180910390fd5b806005015f9054906101000a900460ff16611326576040517f08c379a000000000000000000000000000000000000000000000000000000000815260040161131d90611922565b60405180910390fd5b5f8160020154826004015483600301546113409190611a63565b61134a9190611a96565b90505f826005015f6101000a81548160ff0219169083151502179055505f811115611471575f7f000000000000000000000000000000000000000000000000000000000000000073ffffffffffffffffffffffffffffffffffffffff1663a9059cbb845f015f9054906101000a900473ffffffffffffffffffffffffffffffffffffffff16846040518363ffffffff1660e01b81526004016113ed929190611ad7565b6020604051808303815f875af1158015611409573d5f5f3e3d5ffd5b505050506040513d601f19601f8201168201806040525081019061142d9190611b28565b90508061146f576040517f08c379a000000000000000000000000000000000000000000000000000000000815260040161146690611b9d565b60405180910390fd5b505b815f015f9054906101000a900473ffffffffffffffffffffffffffffffffffffffff1673ffffffffffffffffffffffffffffffffffffffff16837fbba7cace6457ca729b3d2592d6751403a7187faf26ad54d0c869ca812927a4c9836040516114da919061155c565b60405180910390a3505050565b5f5ffd5b5f5ffd5b5f819050919050565b611501816114ef565b811461150b575f5ffd5b50565b5f8135905061151c816114f8565b92915050565b5f60208284031215611537576115366114e7565b5b5f6115448482850161150e565b91505092915050565b611556816114ef565b82525050565b5f60208201905061156f5f83018461154d565b92915050565b5f73ffffffffffffffffffffffffffffffffffffffff82169050919050565b5f819050919050565b5f6115b76115b26115ad84611575565b611594565b611575565b9050919050565b5f6115c88261159d565b9050919050565b5f6115d9826115be565b9050919050565b6115e9816115cf565b82525050565b5f6020820190506116025f8301846115e0565b92915050565b5f61161282611575565b9050919050565b61162281611608565b82525050565b5f81519050919050565b5f82825260208201905092915050565b8281835e5f83830152505050565b5f601f19601f8301169050919050565b5f61166a82611628565b6116748185611632565b9350611684818560208601611642565b61168d81611650565b840191505092915050565b5f8115159050919050565b6116ac81611698565b82525050565b5f610120820190506116c65f83018c611619565b81810360208301526116d8818b611660565b90506116e7604083018a61154d565b6116f4606083018961154d565b611701608083018861154d565b61170e60a08301876116a3565b61171b60c083018661154d565b61172860e083018561154d565b61173661010083018461154d565b9a9950505050505050505050565b61174d81611608565b8114611757575f5ffd5b50565b5f8135905061176881611744565b92915050565b5f5f60408385031215611784576117836114e7565b5b5f6117918582860161150e565b92505060206117a28582860161175a565b9150509250929050565b5f6020820190506117bf5f8301846116a3565b92915050565b5f5ffd5b5f5ffd5b5f5ffd5b5f5f83601f8401126117e6576117e56117c5565b5b8235905067ffffffffffffffff811115611803576118026117c9565b5b60208301915083600182028301111561181f5761181e6117cd565b5b9250929050565b5f5f5f5f5f6080868803121561183f5761183e6114e7565b5b5f86013567ffffffffffffffff81111561185c5761185b6114eb565b5b611868888289016117d1565b9550955050602061187b8882890161150e565b935050604061188c8882890161150e565b925050606061189d8882890161150e565b9150509295509295909350565b5f6040820190506118bd5f8301856116a3565b81810360208301526118cf8184611660565b90509392505050565b7f44726f7020616c726561647920636c6f736564000000000000000000000000005f82015250565b5f61190c601383611632565b9150611917826118d8565b602082019050919050565b5f6020820190508181035f83015261193981611900565b9050919050565b7f44726f7020686173206e6f20657870697279202d207573652063616e63656c445f8201527f726f700000000000000000000000000000000000000000000000000000000000602082015250565b5f61199a602383611632565b91506119a582611940565b604082019050919050565b5f6020820190508181035f8301526119c78161198e565b9050919050565b7f44726f7020686173206e6f7420657870697265642079657400000000000000005f82015250565b5f611a02601883611632565b9150611a0d826119ce565b602082019050919050565b5f6020820190508181035f830152611a2f816119f6565b9050919050565b7f4e487b71000000000000000000000000000000000000000000000000000000005f52601160045260245ffd5b5f611a6d826114ef565b9150611a78836114ef565b9250828203905081811115611a9057611a8f611a36565b5b92915050565b5f611aa0826114ef565b9150611aab836114ef565b9250828202611ab9816114ef565b91508282048414831517611ad057611acf611a36565b5b5092915050565b5f604082019050611aea5f830185611619565b611af7602083018461154d565b9392505050565b611b0781611698565b8114611b11575f5ffd5b50565b5f81519050611b2281611afe565b92915050565b5f60208284031215611b3d57611b3c6114e7565b5b5f611b4a84828501611b14565b91505092915050565b7f526566756e64207472616e73666572206661696c6564000000000000000000005f82015250565b5f611b87601683611632565b9150611b9282611b53565b602082019050919050565b5f6020820190508181035f830152611bb481611b7b565b9050919050565b7f44726f70206973206e6f742061637469766500000000000000000000000000005f82015250565b5f611bef601283611632565b9150611bfa82611bbb565b602082019050919050565b5f6020820190508181035f830152611c1c81611be3565b9050919050565b7f44726f702069732066756c6c7920636c61696d656400000000000000000000005f82015250565b5f611c57601583611632565b9150611c6282611c23565b602082019050919050565b5f6020820190508181035f830152611c8481611c4b565b9050919050565b7f416c726561647920636c61696d656420746869732064726f70000000000000005f82015250565b5f611cbf601983611632565b9150611cca82611c8b565b602082019050919050565b5f6020820190508181035f830152611cec81611cb3565b9050919050565b7f44726f70206861732065787069726564000000000000000000000000000000005f82015250565b5f611d27601083611632565b9150611d3282611cf3565b602082019050919050565b5f6020820190508181035f830152611d5481611d1b565b9050919050565b5f611d65826114ef565b91507fffffffffffffffffffffffffffffffffffffffffffffffffffffffffffffffff8203611d9757611d96611a36565b5b600182019050919050565b7f55534443207472616e73666572206661696c65640000000000000000000000005f82015250565b5f611dd6601483611632565b9150611de182611da2565b602082019050919050565b5f6020820190508181035f830152611e0381611dca565b9050919050565b7f4e487b71000000000000000000000000000000000000000000000000000000005f52602260045260245ffd5b5f6002820490506001821680611e4e57607f821691505b602082108103611e6157611e60611e0a565b5b50919050565b7f5469746c652072657175697265640000000000000000000000000000000000005f82015250565b5f611e9b600e83611632565b9150611ea682611e67565b602082019050919050565b5f6020820190508181035f830152611ec881611e8f565b9050919050565b7f5469746c6520746f6f206c6f6e6720286d6178203230302062797465732900005f82015250565b5f611f03601e83611632565b9150611f0e82611ecf565b602082019050919050565b5f6020820190508181035f830152611f3081611ef7565b9050919050565b7f416d6f756e74206d757374206265203e203000000000000000000000000000005f82015250565b5f611f6b601283611632565b9150611f7682611f37565b602082019050919050565b5f6020820190508181035f830152611f9881611f5f565b9050919050565b7f416d6f756e742070657220636c61696d20746f6f206c617267650000000000005f82015250565b5f611fd3601a83611632565b9150611fde82611f9f565b602082019050919050565b5f6020820190508181035f83015261200081611fc7565b9050919050565b7f4d75737420616c6c6f77206174206c65617374203120636c61696d00000000005f82015250565b5f61203b601b83611632565b915061204682612007565b602082019050919050565b5f6020820190508181035f8301526120688161202f565b9050919050565b7f546f6f206d616e7920636c61696d7320286d61782031303030302900000000005f82015250565b5f6120a3601b83611632565b91506120ae8261206f565b602082019050919050565b5f6020820190508181035f8301526120d081612097565b9050919050565b5f6120e1826114ef565b91506120ec836114ef565b925082820190508082111561210457612103611a36565b5b92915050565b7f457870697279206d75737420626520696e207468652066757475726520616e645f8201527f2077697468696e20313020796561727300000000000000000000000000000000602082015250565b5f612164603083611632565b915061216f8261210a565b604082019050919050565b5f6020820190508181035f83015261219181612158565b9050919050565b5f6040820190506121ab5f830185611619565b6121b86020830184611619565b9392505050565b5f815190506121cd816114f8565b92915050565b5f602082840312156121e8576121e76114e7565b5b5f6121f5848285016121bf565b91505092915050565b7f496e73756666696369656e74205553444320616c6c6f77616e6365202d2063615f8201527f6c6c20617070726f766528292066697273740000000000000000000000000000602082015250565b5f612258603283611632565b9150612263826121fe565b604082019050919050565b5f6020820190508181035f8301526122858161224c565b9050919050565b7f4e487b71000000000000000000000000000000000000000000000000000000005f52604160045260245ffd5b5f819050815f5260205f209050919050565b5f6020601f8301049050919050565b5f82821b905092915050565b5f600883026123157fffffffffffffffffffffffffffffffffffffffffffffffffffffffffffffffff826122da565b61231f86836122da565b95508019841693508086168417925050509392505050565b5f61235161234c612347846114ef565b611594565b6114ef565b9050919050565b5f819050919050565b61236a83612337565b61237e61237682612358565b8484546122e6565b825550505050565b5f5f905090565b612395612386565b6123a0818484612361565b505050565b5b818110156123c3576123b85f8261238d565b6001810190506123a6565b5050565b601f821115612408576123d9816122b9565b6123e2846122cb565b810160208510156123f1578190505b6124056123fd856122cb565b8301826123a5565b50505b505050565b5f82821c905092915050565b5f6124285f198460080261240d565b1980831691505092915050565b5f6124408383612419565b9150826002028217905092915050565b61245982611628565b67ffffffffffffffff8111156124725761247161228c565b5b61247c8254611e37565b6124878282856123c7565b5f60209050601f8311600181146124b8575f84156124a6578287015190505b6124b08582612435565b865550612517565b601f1984166124c6866122b9565b5f5b828110156124ed578489015182556001820191506020850194506020810190506124c8565b8683101561250a5784890151612506601f891682612419565b8355505b6001600288020188555050505b505050505050565b5f6060820190506125325f830186611619565b61253f6020830185611619565b61254c604083018461154d565b949350505050565b7f55534443207472616e7366657246726f6d206661696c656400000000000000005f82015250565b5f612588601883611632565b915061259382612554565b602082019050919050565b5f6020820190508181035f8301526125b58161257c565b9050919050565b828183375f83830152505050565b5f6125d58385611632565b93506125e28385846125bc565b6125eb83611650565b840190509392505050565b5f60a0820190508181035f83015261260f81888a6125ca565b905061261e602083018761154d565b61262b604083018661154d565b612638606083018561154d565b612645608083018461154d565b979650505050505050565b7f4e6f74207468652063726561746f7200000000000000000000000000000000005f82015250565b5f612684600f83611632565b915061268f82612650565b602082019050919050565b5f6020820190508181035f8301526126b181612678565b905091905056fea26469706673582212203965461b8ebb7b77d4990ae89456d5b434bad015fb68bacf89d4de8df9b9c9bc64736f6c634300081c0033","linkReferences":{}},"methodIdentifiers":{"MAX_AMOUNT_PER_CLAIM()":"1dc2b31a","MAX_CLAIMS()":"cf62ba92","MAX_EXPIRY_OFFSET()":"83bfe629","MAX_TITLE_BYTES()":"91836003","cancelDrop(uint256)":"e2710687","claim(uint256)":"379607f5","createDrop(string,uint256,uint256,uint256)":"888d9bd7","dropBalance(uint256)":"cab3fbe2","getDrop(uint256)":"6787d449","hasClaimed(uint256,address)":"873f6f9e","isClaimable(uint256)":"89610a09","nextDropId()":"ce0ef310","refundExpired(uint256)":"1402b17a","totalDrops()":"3ee60bcf","usdc()":"3e413bee"},"id":16}