{"abi":[{"type":"constructor","inputs":[{"name":"_usdc","type":"address","internalType":"address"}],"stateMutability":"nonpayable"},{"type":"function","name":"cancelDrop","inputs":[{"name":"dropId","type":"uint256","internalType":"uint256"}],"outputs":[],"stateMutability":"nonpayable"},{"type":"function","name":"claim","inputs":[{"name":"dropId","type":"uint256","internalType":"uint256"}],"outputs":[],"stateMutability":"nonpayable"},{"type":"function","name":"createDrop","inputs":[{"name":"title","type":"string","internalType":"string"},{"name":"amountPerClaim","type":"uint256","internalType":"uint256"},{"name":"maxClaims","type":"uint256","internalType":"uint256"},{"name":"expiresAt","type":"uint256","internalType":"uint256"}],"outputs":[{"name":"dropId","type":"uint256","internalType":"uint256"}],"stateMutability":"nonpayable"},{"type":"function","name":"dropBalance","inputs":[{"name":"dropId","type":"uint256","internalType":"uint256"}],"outputs":[{"name":"","type":"uint256","internalType":"uint256"}],"stateMutability":"view"},{"type":"function","name":"getDrop","inputs":[{"name":"dropId","type":"uint256","internalType":"uint256"}],"outputs":[{"name":"creator","type":"address","internalType":"address"},{"name":"title","type":"string","internalType":"string"},{"name":"amountPerClaim","type":"uint256","internalType":"uint256"},{"name":"maxClaims","type":"uint256","internalType":"uint256"},{"name":"claimedCount","type":"uint256","internalType":"uint256"},{"name":"active","type":"bool","internalType":"bool"},{"name":"expiresAt","type":"uint256","internalType":"uint256"},{"name":"remainingSlots","type":"uint256","internalType":"uint256"},{"name":"totalAmount","type":"uint256","internalType":"uint256"}],"stateMutability":"view"},{"type":"function","name":"hasClaimed","inputs":[{"name":"dropId","type":"uint256","internalType":"uint256"},{"name":"user","type":"address","internalType":"address"}],"outputs":[{"name":"","type":"bool","internalType":"bool"}],"stateMutability":"view"},{"type":"function","name":"isClaimable","inputs":[{"name":"dropId","type":"uint256","internalType":"uint256"}],"outputs":[{"name":"claimable","type":"bool","internalType":"bool"},{"name":"reason","type":"string","internalType":"string"}],"stateMutability":"view"},{"type":"function","name":"nextDropId","inputs":[],"outputs":[{"name":"","type":"uint256","internalType":"uint256"}],"stateMutability":"view"},{"type":"function","name":"refundExpired","inputs":[{"name":"dropId","type":"uint256","internalType":"uint256"}],"outputs":[],"stateMutability":"nonpayable"},{"type":"function","name":"totalDrops","inputs":[],"outputs":[{"name":"","type":"uint256","internalType":"uint256"}],"stateMutability":"view"},{"type":"function","name":"usdc","inputs":[],"outputs":[{"name":"","type":"address","internalType":"contract IERC20"}],"stateMutability":"view"},{"type":"event","name":"Claimed","inputs":[{"name":"dropId","type":"uint256","indexed":true,"internalType":"uint256"},{"name":"claimer","type":"address","indexed":true,"internalType":"address"},{"name":"amount","type":"uint256","indexed":false,"internalType":"uint256"}],"anonymous":false},{"type":"event","name":"DropCancelled","inputs":[{"name":"dropId","type":"uint256","indexed":true,"internalType":"uint256"},{"name":"creator","type":"address","indexed":true,"internalType":"address"},{"name":"refundAmount","type":"uint256","indexed":false,"internalType":"uint256"}],"anonymous":false},{"type":"event","name":"DropCreated","inputs":[{"name":"dropId","type":"uint256","indexed":true,"internalType":"uint256"},{"name":"creator","type":"address","indexed":true,"internalType":"address"},{"name":"title","type":"string","indexed":false,"internalType":"string"},{"name":"totalAmount","type":"uint256","indexed":false,"internalType":"uint256"},{"name":"amountPerClaim","type":"uint256","indexed":false,"internalType":"uint256"},{"name":"maxClaims","type":"uint256","indexed":false,"internalType":"uint256"},{"name":"expiresAt","type":"uint256","indexed":false,"internalType":"uint256"}],"anonymous":false},{"type":"event","name":"DropExpiredRefund","inputs":[{"name":"dropId","type":"uint256","indexed":true,"internalType":"uint256"},{"name":"creator","type":"address","indexed":true,"internalType":"address"},{"name":"refundAmount","type":"uint256","indexed":false,"internalType":"uint256"}],"anonymous":false}],"bytecode":{"object":"0x60a060405234801561000f575f5ffd5b5060405161264c38038061264c83398181016040528101906100319190610137565b5f73ffffffffffffffffffffffffffffffffffffffff168173ffffffffffffffffffffffffffffffffffffffff160361009f576040517f08c379a0000000000000000000000000000000000000000000000000000000008152600401610096906101bc565b60405180910390fd5b8073ffffffffffffffffffffffffffffffffffffffff1660808173ffffffffffffffffffffffffffffffffffffffff1681525050506101da565b5f5ffd5b5f73ffffffffffffffffffffffffffffffffffffffff82169050919050565b5f610106826100dd565b9050919050565b610116816100fc565b8114610120575f5ffd5b50565b5f815190506101318161010d565b92915050565b5f6020828403121561014c5761014b6100d9565b5b5f61015984828501610123565b91505092915050565b5f82825260208201905092915050565b7f496e76616c6964205553444320616464726573730000000000000000000000005f82015250565b5f6101a6601483610162565b91506101b182610172565b602082019050919050565b5f6020820190508181035f8301526101d38161019a565b9050919050565b6080516124376102155f395f818161038e0152818161074a0152818161088301528181610bb501528181610c9101526111e401526124375ff3fe608060405234801561000f575f5ffd5b50600436106100a7575f3560e01c8063873f6f9e1161006f578063873f6f9e14610157578063888d9bd71461018757806389610a09146101b7578063cab3fbe2146101e8578063ce0ef31014610218578063e271068714610236576100a7565b80631402b17a146100ab578063379607f5146100c75780633e413bee146100e35780633ee60bcf146101015780636787d4491461011f575b5f5ffd5b6100c560048036038101906100c09190611394565b610252565b005b6100e160048036038101906100dc9190611394565b610503565b005b6100eb610881565b6040516100f89190611439565b60405180910390f35b6101096108a5565b6040516101169190611461565b60405180910390f35b61013960048036038101906101349190611394565b6108ad565b60405161014e99989796959493929190611524565b60405180910390f35b610171600480360381019061016c91906115e0565b6109e6565b60405161017e919061161e565b60405180910390f35b6101a1600480360381019061019c9190611698565b610a48565b6040516101ae9190611461565b60405180910390f35b6101d160048036038101906101cc9190611394565b610f2a565b6040516101df92919061171c565b60405180910390f35b61020260048036038101906101fd9190611394565b61105f565b60405161020f9190611461565b60405180910390f35b61022061109f565b60405161022d9190611461565b60405180910390f35b610250600480360381019061024b9190611394565b6110a4565b005b5f60015f8381526020019081526020015f209050806005015f9054906101000a900460ff166102b6576040517f08c379a00000000000000000000000000000000000000000000000000000000081526004016102ad90611794565b60405180910390fd5b5f8160060154116102fc576040517f08c379a00000000000000000000000000000000000000000000000000000000081526004016102f390611822565b60405180910390fd5b80600601544211610342576040517f08c379a00000000000000000000000000000000000000000000000000000000081526004016103399061188a565b60405180910390fd5b5f81600201548260040154836003015461035c91906118d5565b6103669190611908565b90505f826005015f6101000a81548160ff0219169083151502179055505f81111561048d575f7f000000000000000000000000000000000000000000000000000000000000000073ffffffffffffffffffffffffffffffffffffffff1663a9059cbb845f015f9054906101000a900473ffffffffffffffffffffffffffffffffffffffff16846040518363ffffffff1660e01b8152600401610409929190611949565b6020604051808303815f875af1158015610425573d5f5f3e3d5ffd5b505050506040513d601f19601f82011682018060405250810190610449919061199a565b90508061048b576040517f08c379a000000000000000000000000000000000000000000000000000000000815260040161048290611a0f565b60405180910390fd5b505b815f015f9054906101000a900473ffffffffffffffffffffffffffffffffffffffff1673ffffffffffffffffffffffffffffffffffffffff16837fc414989b191d08eda05e507548e695057ae58f68df8d31de14298068e8c4d89e836040516104f69190611461565b60405180910390a3505050565b5f60015f8381526020019081526020015f209050806005015f9054906101000a900460ff16610567576040517f08c379a000000000000000000000000000000000000000000000000000000000815260040161055e90611a77565b60405180910390fd5b80600301548160040154106105b1576040517f08c379a00000000000000000000000000000000000000000000000000000000081526004016105a890611adf565b60405180910390fd5b60025f8381526020019081526020015f205f3373ffffffffffffffffffffffffffffffffffffffff1673ffffffffffffffffffffffffffffffffffffffff1681526020019081526020015f205f9054906101000a900460ff161561064a576040517f08c379a000000000000000000000000000000000000000000000000000000000815260040161064190611b47565b60405180910390fd5b5f81600601541480610660575080600601544211155b61069f576040517f08c379a000000000000000000000000000000000000000000000000000000000815260040161069690611baf565b60405180910390fd5b600160025f8481526020019081526020015f205f3373ffffffffffffffffffffffffffffffffffffffff1673ffffffffffffffffffffffffffffffffffffffff1681526020019081526020015f205f6101000a81548160ff021916908315150217905550806004015f81548092919061071790611bcd565b91905055508060030154816004015403610747575f816005015f6101000a81548160ff0219169083151502179055505b5f7f000000000000000000000000000000000000000000000000000000000000000073ffffffffffffffffffffffffffffffffffffffff1663a9059cbb3384600201546040518363ffffffff1660e01b81526004016107a7929190611949565b6020604051808303815f875af11580156107c3573d5f5f3e3d5ffd5b505050506040513d601f19601f820116820180604052508101906107e7919061199a565b905080610829576040517f08c379a000000000000000000000000000000000000000000000000000000000815260040161082090611c5e565b60405180910390fd5b3373ffffffffffffffffffffffffffffffffffffffff16837f4ec90e965519d92681267467f775ada5bd214aa92c0dc93d90a5e880ce9ed02684600201546040516108749190611461565b60405180910390a3505050565b7f000000000000000000000000000000000000000000000000000000000000000081565b5f5f54905090565b5f60605f5f5f5f5f5f5f5f60015f8c81526020019081526020015f209050805f015f9054906101000a900473ffffffffffffffffffffffffffffffffffffffff1699508060010180546108ff90611ca9565b80601f016020809104026020016040519081016040528092919081815260200182805461092b90611ca9565b80156109765780601f1061094d57610100808354040283529160200191610976565b820191905f5260205f20905b81548152906001019060200180831161095957829003601f168201915b50505050509850806002015497508060030154965080600401549550806005015f9054906101000a900460ff16945080600601549350806004015481600301546109c091906118d5565b9250806003015481600201546109d69190611908565b9150509193959799909294969850565b5f60025f8481526020019081526020015f205f8373ffffffffffffffffffffffffffffffffffffffff1673ffffffffffffffffffffffffffffffffffffffff1681526020019081526020015f205f9054906101000a900460ff16905092915050565b5f5f8686905011610a8e576040517f08c379a0000000000000000000000000000000000000000000000000000000008152600401610a8590611d23565b60405180910390fd5b5f8411610ad0576040517f08c379a0000000000000000000000000000000000000000000000000000000008152600401610ac790611d8b565b60405180910390fd5b5f8311610b12576040517f08c379a0000000000000000000000000000000000000000000000000000000008152600401610b0990611df3565b60405180910390fd5b612710831115610b57576040517f08c379a0000000000000000000000000000000000000000000000000000000008152600401610b4e90611e5b565b60405180910390fd5b5f821480610b6457504282115b610ba3576040517f08c379a0000000000000000000000000000000000000000000000000000000008152600401610b9a90611ec3565b60405180910390fd5b5f8385610bb09190611908565b9050807f000000000000000000000000000000000000000000000000000000000000000073ffffffffffffffffffffffffffffffffffffffff1663dd62ed3e33306040518363ffffffff1660e01b8152600401610c0e929190611ee1565b602060405180830381865afa158015610c29573d5f5f3e3d5ffd5b505050506040513d601f19601f82011682018060405250810190610c4d9190611f1c565b1015610c8e576040517f08c379a0000000000000000000000000000000000000000000000000000000008152600401610c8590611fb7565b60405180910390fd5b5f7f000000000000000000000000000000000000000000000000000000000000000073ffffffffffffffffffffffffffffffffffffffff166323b872dd3330856040518463ffffffff1660e01b8152600401610cec93929190611fd5565b6020604051808303815f875af1158015610d08573d5f5f3e3d5ffd5b505050506040513d601f19601f82011682018060405250810190610d2c919061199a565b905080610d6e576040517f08c379a0000000000000000000000000000000000000000000000000000000008152600401610d6590612054565b60405180910390fd5b5f5492505f5f81548092919060010191905055506040518060e001604052803373ffffffffffffffffffffffffffffffffffffffff16815260200189898080601f0160208091040260200160405190810160405280939291908181526020018383808284375f81840152601f19601f8201169050808301925050505050505081526020018781526020018681526020015f81526020016001151581526020018581525060015f8581526020019081526020015f205f820151815f015f6101000a81548173ffffffffffffffffffffffffffffffffffffffff021916908373ffffffffffffffffffffffffffffffffffffffff1602179055506020820151816001019081610e7b9190612236565b5060408201518160020155606082015181600301556080820151816004015560a0820151816005015f6101000a81548160ff02191690831515021790555060c082015181600601559050503373ffffffffffffffffffffffffffffffffffffffff16837fc1f8395bd009cf5f8e93948e9635f814bd147a91dc9d9b27826e3d53395cfc3f8a8a868b8b8b604051610f179695949392919061233f565b60405180910390a3505095945050505050565b5f60605f60015f8581526020019081526020015f209050806005015f9054906101000a900460ff16610f97575f6040518060400160405280600e81526020017f44726f7020697320636c6f736564000000000000000000000000000000000000815250925092505061105a565b8060030154816004015410610fe7575f6040518060400160405280600d81526020017f46756c6c7920636c61696d656400000000000000000000000000000000000000815250925092505061105a565b5f8160060154118015610ffd5750806006015442115b15611043575f6040518060400160405280601081526020017f44726f7020686173206578706972656400000000000000000000000000000000815250925092505061105a565b600160405180602001604052805f81525092509250505b915091565b5f5f60015f8481526020019081526020015f20905080600201548160040154826003015461108d91906118d5565b6110979190611908565b915050919050565b5f5481565b5f60015f8381526020019081526020015f209050805f015f9054906101000a900473ffffffffffffffffffffffffffffffffffffffff1673ffffffffffffffffffffffffffffffffffffffff163373ffffffffffffffffffffffffffffffffffffffff1614611148576040517f08c379a000000000000000000000000000000000000000000000000000000000815260040161113f906123e3565b60405180910390fd5b806005015f9054906101000a900460ff16611198576040517f08c379a000000000000000000000000000000000000000000000000000000000815260040161118f90611794565b60405180910390fd5b5f8160020154826004015483600301546111b291906118d5565b6111bc9190611908565b90505f826005015f6101000a81548160ff0219169083151502179055505f8111156112e3575f7f000000000000000000000000000000000000000000000000000000000000000073ffffffffffffffffffffffffffffffffffffffff1663a9059cbb845f015f9054906101000a900473ffffffffffffffffffffffffffffffffffffffff16846040518363ffffffff1660e01b815260040161125f929190611949565b6020604051808303815f875af115801561127b573d5f5f3e3d5ffd5b505050506040513d601f19601f8201168201806040525081019061129f919061199a565b9050806112e1576040517f08c379a00000000000000000000000000000000000000000000000000000000081526004016112d890611a0f565b60405180910390fd5b505b815f015f9054906101000a900473ffffffffffffffffffffffffffffffffffffffff1673ffffffffffffffffffffffffffffffffffffffff16837fbba7cace6457ca729b3d2592d6751403a7187faf26ad54d0c869ca812927a4c98360405161134c9190611461565b60405180910390a3505050565b5f5ffd5b5f5ffd5b5f819050919050565b61137381611361565b811461137d575f5ffd5b50565b5f8135905061138e8161136a565b92915050565b5f602082840312156113a9576113a8611359565b5b5f6113b684828501611380565b91505092915050565b5f73ffffffffffffffffffffffffffffffffffffffff82169050919050565b5f819050919050565b5f6114016113fc6113f7846113bf565b6113de565b6113bf565b9050919050565b5f611412826113e7565b9050919050565b5f61142382611408565b9050919050565b61143381611419565b82525050565b5f60208201905061144c5f83018461142a565b92915050565b61145b81611361565b82525050565b5f6020820190506114745f830184611452565b92915050565b5f611484826113bf565b9050919050565b6114948161147a565b82525050565b5f81519050919050565b5f82825260208201905092915050565b8281835e5f83830152505050565b5f601f19601f8301169050919050565b5f6114dc8261149a565b6114e681856114a4565b93506114f68185602086016114b4565b6114ff816114c2565b840191505092915050565b5f8115159050919050565b61151e8161150a565b82525050565b5f610120820190506115385f83018c61148b565b818103602083015261154a818b6114d2565b9050611559604083018a611452565b6115666060830189611452565b6115736080830188611452565b61158060a0830187611515565b61158d60c0830186611452565b61159a60e0830185611452565b6115a8610100830184611452565b9a9950505050505050505050565b6115bf8161147a565b81146115c9575f5ffd5b50565b5f813590506115da816115b6565b92915050565b5f5f604083850312156115f6576115f5611359565b5b5f61160385828601611380565b9250506020611614858286016115cc565b9150509250929050565b5f6020820190506116315f830184611515565b92915050565b5f5ffd5b5f5ffd5b5f5ffd5b5f5f83601f84011261165857611657611637565b5b8235905067ffffffffffffffff8111156116755761167461163b565b5b6020830191508360018202830111156116915761169061163f565b5b9250929050565b5f5f5f5f5f608086880312156116b1576116b0611359565b5b5f86013567ffffffffffffffff8111156116ce576116cd61135d565b5b6116da88828901611643565b955095505060206116ed88828901611380565b93505060406116fe88828901611380565b925050606061170f88828901611380565b9150509295509295909350565b5f60408201905061172f5f830185611515565b818103602083015261174181846114d2565b90509392505050565b7f44726f7020616c726561647920636c6f736564000000000000000000000000005f82015250565b5f61177e6013836114a4565b91506117898261174a565b602082019050919050565b5f6020820190508181035f8301526117ab81611772565b9050919050565b7f44726f7020686173206e6f20657870697279202d207573652063616e63656c445f8201527f726f700000000000000000000000000000000000000000000000000000000000602082015250565b5f61180c6023836114a4565b9150611817826117b2565b604082019050919050565b5f6020820190508181035f83015261183981611800565b9050919050565b7f44726f7020686173206e6f7420657870697265642079657400000000000000005f82015250565b5f6118746018836114a4565b915061187f82611840565b602082019050919050565b5f6020820190508181035f8301526118a181611868565b9050919050565b7f4e487b71000000000000000000000000000000000000000000000000000000005f52601160045260245ffd5b5f6118df82611361565b91506118ea83611361565b9250828203905081811115611902576119016118a8565b5b92915050565b5f61191282611361565b915061191d83611361565b925082820261192b81611361565b91508282048414831517611942576119416118a8565b5b5092915050565b5f60408201905061195c5f83018561148b565b6119696020830184611452565b9392505050565b6119798161150a565b8114611983575f5ffd5b50565b5f8151905061199481611970565b92915050565b5f602082840312156119af576119ae611359565b5b5f6119bc84828501611986565b91505092915050565b7f526566756e64207472616e73666572206661696c6564000000000000000000005f82015250565b5f6119f96016836114a4565b9150611a04826119c5565b602082019050919050565b5f6020820190508181035f830152611a26816119ed565b9050919050565b7f44726f70206973206e6f742061637469766500000000000000000000000000005f82015250565b5f611a616012836114a4565b9150611a6c82611a2d565b602082019050919050565b5f6020820190508181035f830152611a8e81611a55565b9050919050565b7f44726f702069732066756c6c7920636c61696d656400000000000000000000005f82015250565b5f611ac96015836114a4565b9150611ad482611a95565b602082019050919050565b5f6020820190508181035f830152611af681611abd565b9050919050565b7f416c726561647920636c61696d656420746869732064726f70000000000000005f82015250565b5f611b316019836114a4565b9150611b3c82611afd565b602082019050919050565b5f6020820190508181035f830152611b5e81611b25565b9050919050565b7f44726f70206861732065787069726564000000000000000000000000000000005f82015250565b5f611b996010836114a4565b9150611ba482611b65565b602082019050919050565b5f6020820190508181035f830152611bc681611b8d565b9050919050565b5f611bd782611361565b91507fffffffffffffffffffffffffffffffffffffffffffffffffffffffffffffffff8203611c0957611c086118a8565b5b600182019050919050565b7f55534443207472616e73666572206661696c65640000000000000000000000005f82015250565b5f611c486014836114a4565b9150611c5382611c14565b602082019050919050565b5f6020820190508181035f830152611c7581611c3c565b9050919050565b7f4e487b71000000000000000000000000000000000000000000000000000000005f52602260045260245ffd5b5f6002820490506001821680611cc057607f821691505b602082108103611cd357611cd2611c7c565b5b50919050565b7f5469746c652072657175697265640000000000000000000000000000000000005f82015250565b5f611d0d600e836114a4565b9150611d1882611cd9565b602082019050919050565b5f6020820190508181035f830152611d3a81611d01565b9050919050565b7f416d6f756e74206d757374206265203e203000000000000000000000000000005f82015250565b5f611d756012836114a4565b9150611d8082611d41565b602082019050919050565b5f6020820190508181035f830152611da281611d69565b9050919050565b7f4d75737420616c6c6f77206174206c65617374203120636c61696d00000000005f82015250565b5f611ddd601b836114a4565b9150611de882611da9565b602082019050919050565b5f6020820190508181035f830152611e0a81611dd1565b9050919050565b7f546f6f206d616e7920636c61696d7320286d61782031303030302900000000005f82015250565b5f611e45601b836114a4565b9150611e5082611e11565b602082019050919050565b5f6020820190508181035f830152611e7281611e39565b9050919050565b7f457870697279206d75737420626520696e2074686520667574757265000000005f82015250565b5f611ead601c836114a4565b9150611eb882611e79565b602082019050919050565b5f6020820190508181035f830152611eda81611ea1565b9050919050565b5f604082019050611ef45f83018561148b565b611f01602083018461148b565b9392505050565b5f81519050611f168161136a565b92915050565b5f60208284031215611f3157611f30611359565b5b5f611f3e84828501611f08565b91505092915050565b7f496e73756666696369656e74205553444320616c6c6f77616e6365202d2063615f8201527f6c6c20617070726f766528292066697273740000000000000000000000000000602082015250565b5f611fa16032836114a4565b9150611fac82611f47565b604082019050919050565b5f6020820190508181035f830152611fce81611f95565b9050919050565b5f606082019050611fe85f83018661148b565b611ff5602083018561148b565b6120026040830184611452565b949350505050565b7f55534443207472616e7366657246726f6d206661696c656400000000000000005f82015250565b5f61203e6018836114a4565b91506120498261200a565b602082019050919050565b5f6020820190508181035f83015261206b81612032565b9050919050565b7f4e487b71000000000000000000000000000000000000000000000000000000005f52604160045260245ffd5b5f819050815f5260205f209050919050565b5f6020601f8301049050919050565b5f82821b905092915050565b5f600883026120fb7fffffffffffffffffffffffffffffffffffffffffffffffffffffffffffffffff826120c0565b61210586836120c0565b95508019841693508086168417925050509392505050565b5f61213761213261212d84611361565b6113de565b611361565b9050919050565b5f819050919050565b6121508361211d565b61216461215c8261213e565b8484546120cc565b825550505050565b5f5f905090565b61217b61216c565b612186818484612147565b505050565b5b818110156121a95761219e5f82612173565b60018101905061218c565b5050565b601f8211156121ee576121bf8161209f565b6121c8846120b1565b810160208510156121d7578190505b6121eb6121e3856120b1565b83018261218b565b50505b505050565b5f82821c905092915050565b5f61220e5f19846008026121f3565b1980831691505092915050565b5f61222683836121ff565b9150826002028217905092915050565b61223f8261149a565b67ffffffffffffffff81111561225857612257612072565b5b6122628254611ca9565b61226d8282856121ad565b5f60209050601f83116001811461229e575f841561228c578287015190505b612296858261221b565b8655506122fd565b601f1984166122ac8661209f565b5f5b828110156122d3578489015182556001820191506020850194506020810190506122ae565b868310156122f057848901516122ec601f8916826121ff565b8355505b6001600288020188555050505b505050505050565b828183375f83830152505050565b5f61231e83856114a4565b935061232b838584612305565b612334836114c2565b840190509392505050565b5f60a0820190508181035f83015261235881888a612313565b90506123676020830187611452565b6123746040830186611452565b6123816060830185611452565b61238e6080830184611452565b979650505050505050565b7f4e6f74207468652063726561746f7200000000000000000000000000000000005f82015250565b5f6123cd600f836114a4565b91506123d882612399565b602082019050919050565b5f6020820190508181035f8301526123fa816123c1565b905091905056fea264697066735822122025af109534f1be92a29f68dec4407a4ee2bec43569cb96de6abdbd9c2e4edbd564736f6c634300081c0033","linkReferences":{}},"methodIdentifiers":{"cancelDrop(uint256)":"e2710687","claim(uint256)":"379607f5","createDrop(string,uint256,uint256,uint256)":"888d9bd7","dropBalance(uint256)":"cab3fbe2","getDrop(uint256)":"6787d449","hasClaimed(uint256,address)":"873f6f9e","isClaimable(uint256)":"89610a09","nextDropId()":"ce0ef310","refundExpired(uint256)":"1402b17a","totalDrops()":"3ee60bcf","usdc()":"3e413bee"},"id":0}